:020000040800F2
:10000000B86E002061A20008D9A10008DBA1000899
:10001000DDA10008DFA10008E1A100080000000048
:10002000000000000000000000000000E3A1000844
:10003000E5A1000800000000E7A10008E9A1000810
:1000400091A2000895A2000899A200089DA20008AC
:10005000A1A20008A5A20008A9A20008ADA200085C
:10006000B1A20008B5A20008B9A20008BDA200080C
:10007000C1A20008C5A20008C9A20008CDA20008BC
:10008000D1A20008D5A20008D9A20008DDA200086C
:10009000E1A20008E5A20008E9A20008EDA200081C
:1000A000F1A20008F5A20008F9A20008FDA20008CC
:1000B00001A3000805A3000809A300080DA3000878
:1000C00011A3000815A3000819A300081DA3000828
:1000D00021A3000825A3000829A300082DA30008D8
:1000E00031A3000835A3000839A300083DA3000888
:1000F00041A3000845A3000849A300084DA3000838
:1001000051A3000855A3000859A300085DA30008E7
:1001100061A3000865A3000869A300086DA3000897
:1001200071A3000875A3000879A300087DA3000847
:1001300081A3000885A3000889A300088DA30008F7
:1001400091A3000895A3000899A300089DA30008A7
:10015000A1A30008A5A30008A9A30008ADA3000857
:10016000B1A30008B5A30008B9A30008BDA3000807
:10017000C1A30008C5A30008C9A30008000000002F
:10018000CDA30008D1A300082DE9FE4F0646DFF8F5
:10019000187B706838627189142947DBDFF80C8B93
:1001A000D8F80010D8F8140001F0E2FA002840F066
:1001B000DA8198F8140000F0F000E02800F0D38114
:1001C000386A00F086FD000B81001429A4BF308935
:1001D00088422BDB0022A1F114007A62B882728976
:1001E000DFF8CC9ADFF8CCAA8A4206DBF8824942D3
:1001F00009B2304601F0F4FC35E0306828B95346C6
:10020000B2220FF2CC3101F042F96FF01301304607
:1002100001F0E6FC7189BC8AF9823046641A09B2A1
:1002200001F038F930684189A4B2A142C0F29B8143
:1002300042687A6221B201F02DF9318970890C1B74
:10024000348128B15346CF220FF2943101F01FF9C7
:10025000316830890A89904205D05346D0220FF286
:100260008C3101F014F9386ADFF84CBA008802F0DA
:1002700057F8396A0880488802F052F8396A48808D
:1002800001F0F7F8396A4860B862396A886802F0A4
:100290004DF8396A8860F862386AC08902F040F81F
:1002A000396AC88100F011FD00F03F00387010F08D
:1002B0000300318918BF01204018B8830025DBF8FE
:1002C00000400FF24830009001E02546E468002C21
:1002D00000F05081207D28B95346E2220FF25431BC
:1002E00001F0D5F8207D0A2805D15346E3220FF20C
:1002F0006C3101F0CCF8207D012804D100995346DF
:10030000E42201F0C4F8386A218B0288914202BFCE
:10031000E18A40888142D8D16168D8F810008142D2
:1003200002BF2168D8F814008142CED1E168A14211
:1003300005D15346EC220FF2503101F0A8F835B147
:10034000E068E860DBF80010E160CBF80040E068AE
:10035000A04205D15346F4220FF2583101F097F82C
:10036000002078603189386AB981386100213963A9
:1003700079707983BE603878010703D5707B40F0CF
:10038000010070736FF00C05606F00286AD0204682
:1003900002F0EEFBA84205D0606F00281CBFB88BAE
:1003A00000285FD0608D002802D1204603F07CF841
:1003B000CFE0E468002C00F0E380207D0A2804D020
:1003C0005346FE22594601F062F8386A218B0388B1
:1003D000994202BF4588E08AA842EAD16168D8F80C
:1003E0001000814202BF2168D8F814008142E0D198
:1003F0003A785107204623D4B98B940712D5BC6AAA
:10040000426AB4EB020C13D4028DACEB0202002A58
:100410000EDC0193009508F11003F86A08F114024C
:100420006118C7E0D20703D5DFF890381C68046272
:10043000002905D0817E41F00201817603F069F840
:1004400091E0C88A5C88A04209D10868D8F81440B5
:10045000A04218BF002918BF002800F0AE800A464D
:10046000C96892E07C63204600F0F4F9A84270D09D
:10047000787801070FD5D4F88C201AB120696FF075
:100480000D0190472146584602F0AEFC214601205E
:1004900003F046FC5DE07A8B42B1E36F23B1206943
:1004A00021469847A84254D000207883204600F087
:1004B0003DF900284DD1386B30B3606F28B15346F9
:1004C0004FF4D27286A100F0E2FFA07E3A6BC10623
:1004D00006D5104601F088FB204602F0E3F838E02C
:1004E000D4F880C0BCF1000F04D02069002321465D
:1004F000E04704E000232146002002F097FBA842D9
:1005000027D008B1386B60677878810618D5606F9E
:1005100020B1417B41F02001417311E0208DB0F505
:10052000066F1CBF401C2085D4F880C0BCF1000FB2
:1005300006D02069002300222146E047A84208D0C7
:1005400000207863204600F0F1F810B9204602F050
:10055000E0FF002078633863B86848B101F044FBDD
:100560000020B86004E03046BDE8FE4F01F03CBB1F
:10057000BDE8F78FDFF848070FF2801B046819E722
:10058000DFF840573B6A2968002200297FF459AF01
:10059000988901F0C5FE4007E5D4386A01880191C9
:1005A00008F110034088B98B009008F11402B86A72
:1005B0004118F86A03F00AF9D5E722B1C868D0609B
:1005C0002A68CA602960084600F0CEF8CBE7000030
:1005D000702D3E6E65787420213D204E554C4C00A8
:1005E000702D3E6C656E203D3D203000702D3E74B8
:1005F0006F745F6C656E203D3D20702D3E6E65789A
:10060000742D3E746F745F6C656E00007463705F70
:10061000696E7075743A20616374697665207063E1
:10062000622D3E737461746520213D204C49535402
:10063000454E00007463705F696E7075743A206196
:100640006374697665207063622D3E7374617465AE
:1006500020213D20434C4F53454400007463705F9C
:10066000696E7075743A2061637469766520706391
:10067000622D3E737461746520213D2054494D45BF
:100680002D574149540000007463705F696E7075A6
:10069000743A207063622D3E6E65787420213D208F
:1006A00070636220286265666F72652063616368AB
:1006B000652900007463705F696E7075743A20700C
:1006C00063622D3E6E65787420213D207063622048
:1006D00028616674657220636163686529000000A3
:1006E0007063622D3E726566757365645F646174E4
:1006F00061203D3D204E554C4C0000007463705FFE
:10070000696E7075743A2054494D452D57414954CE
:10071000207063622D3E7374617465203D3D2054EA
:10072000494D452D574149540000000010B504467D
:10073000DFF874054178C80614D5A17EC80606D432
:10074000D4F88C201AB120696FF00E019047214631
:10075000DFF8640502F048FB2146012003F0E0FACF
:10076000012010BD002010BDFEB5DFF83C55064647
:10077000287841076CD4C106DFF830750FD5286A98
:100780000188019107F110034088A98B009007F1BF
:100790001402A86A4118E86A03F018F8F7BD800748
:1007A00056D5707D02F088FA04000AD1B369002B97
:1007B0004ED0306903B0BDE8F0404FF0FF32002169
:1007C00018477869206003223969616004F15C0789
:1007D000F08AE082296A088820832275A86A401C72
:1007E0006062E062204602F047FB6065E06460649E
:1007F000A065A86A401E206530692061FE61307ADC
:1008000000F00C002072DFF8B00400F0FFF9DFF810
:10081000181C01200870204600F059FE286AC08983
:1008200038807880211D608E02F02CFB60861221BA
:10083000204602F0A9FD30B1204603B0BDE8F040EB
:10084000002101F0B7BE2046BDE8FE4002F061BEC7
:10085000F7BD00002DE9FE4FDFF84C54DFF850A43F
:10086000DFF8508404462878410704F1440627D570
:10087000207D022805D1E86AB168884240F09D8158
:100880000BE0616AAA6A8A4212D130B9434640F24B
:10089000E7220FF22C3100F0D0F9687840F0080020
:1008A0006870A07E00F0FE00A0766FF00D0085E17C
:1008B000511A00F18281208D091A0029DEDC88E0BE
:1008C000800704D5207D022818BF0328F7D1A07E19
:1008D000C10603D4DFF8E40302682262002084F832
:1008E000960041F21C19204600F0F1FDAA6AA88B7F
:1008F0002B6ADFF8B8E31018029094F814B02F7840
:10090000E86AABF1020BBBF1070F07F0100162D8E8
:10091000DFE81BF008007900D300DC000801D300F9
:100920001901430107F01207122F02BF35686D1C31
:10093000A84251D1511C6162E1623060521ED889D7
:1009400030837083F26004202075211D608E02F0D8
:1009500099FA42004A458CBF13464B466086810097
:10096000994238BF800003D34A458CBF40004846B7
:10097000B080F08B28B9434640F21A3298A100F0BB
:100980005CF9F08BB56A411EF1835DB9756A35B9C2
:100990004FEA080340F2223297A100F04EF928688E
:1009A000706201E02968B162284602F01FF9B06A5E
:1009B00000280EBF4FF0FF30002084F84200208650
:1009C000336C33B1206900222146984710F10D0F96
:1009D00040D000F024F9F0E00029FCD01988019102
:1009E0005A88029900920EF110030EF1140202F0DF
:1009F000EDFE94F84200062804DA00212186204604
:100A000002F086FFD9E000294DD03168411A491E15
:100A10003DD4B168411A002939DC04202075706B7F
:100A2000A8B1806940B9434640F251320FF6BC315B
:100A300000F003F9706B50B1706B83693BB12069B2
:100A400000222146984740B110F10D0F02D02046F8
:100A500001F028FE6FF00C00B0E000F0ECF8688BBD
:100A600008B1401E6883608E42004A458CBF134621
:100A70004B468100994238BF800003D34A458CBF62
:100A800040004846B080687881061BD495E01A88FB
:100A900001920EF11402598800910EF1100302998F
:100AA00002F094FE89E0B807FCD5616A491E8A42CB
:100AB00002D1204602F043FF7FE000F0BCF86878E6
:100AC00081067AD500F0ABF8072129E000F0B3F8F1
:100AD0006A782878E96A930600F0100017D590B17B
:100AE000B268914204BF706A00280CD100F09CF8F3
:100AF00000F091F839D000E00846002841D0C168E4
:100B0000A142F9D13BE000F08AF8082108E0002872
:100B100053D0B268914204BF706A00284DD10621BB
:100B200021754AE000F087F86878810645D500F025
:100B30007BF800F070F818D000E0084608B3C168F0
:100B4000A142FAD11BE000F076F82878C10634D52E
:100B5000E86AB168884204BF706A00282DD1204637
:100B600002F01FF900F057F805D153480168CA6830
:100B7000026006E0084620B1C168A142FAD1E168EE
:100B8000C1600020DFF8A028E060012111700A2078
:100B900020754B4800F03AF80FE000F04CF8287848
:100BA000C1060AD5E86AB168884204BF706A0028A5
:100BB00003D1687840F0100068700020BDE8FE8F17
:100BC0007463705F696E7075743A207063622D3E55
:100BD000737461746520213D20434C4F534544009C
:100BE0007063622D3E736E645F71756575656C65CB
:100BF0006E203E20300000006E6F207365676D65CB
:100C00006E7420746F206672656500000168E16093
:100C1000046003F04DB928480068A0427047A07EE8
:100C200040F00200A0767047A07E40F00200A0765F
:100C3000204602F0B6B820464EE0504603F03CBADB
:100C400070B505460C46E96800F03FF8C00713D5BB
:100C5000204601F0C2FF002423E000F03AF8C0076C
:100C600006D5012001F05CFBE9688A891043888180
:100C70002046246801F0BAFF9CB1E0680A492A893D
:100C8000896A436826898A18D31A9B1BE5D543686D
:100C9000D21A002A05DD591A298189B2686800F044
:100CA000EBFE2C6070BD00008C690020286A0020DB
:100CB00048150008701500082000002014000020CE
:100CC000240000201C000020C168888901F028BB96
:100CD0003069808901F024BB2DE9F84F07460FF6F3
:100CE0006809387D0FF6880A042806DA53464FF45F
:100CF00081620FF6181100F0CAFBDFF84468307803
:100D0000C10607F1440540F13981D5F80CC0B06A3D
:100D1000D5F810802C8B316AF36ABCEB000E08EB1F
:100D2000040209D402D1B8EB030C05D498451DD1B7
:100D3000B1F80E80444519D2C989298307F1440CC2
:100D40008846BCF81A40A04538BFA046A5F81A80CE
:100D5000E86007F194042B61607821B930B9012172
:100D60002070617002E008B10020607007F142015C
:100D7000D5F800C00FF6D8040FF6AC08A3EB0C00B2
:100D8000002828DCB08B002801BF2869B5F818E0DE
:100D9000704490421CD1B7F93000002818D49C450B
:100DA00016D14878421CD3B2984238BF4A7048786E
:100DB000042807DBA888798E09188AB2904200D2ED
:100DC000A9809BE00328FCD1384602F0DDFD95E0C8
:100DD0000020487092E0401E6BD4A868181A0028C2
:100DE00067DCB87E420704D500F0FB00B876E888DF
:100DF000A88000220A70B7F93C00B7F93E2002EB48
:100E0000E002A7F84020002048702B60397D0429BB
:100E100032DBA888E9888842798E04D209188AB220
:100E2000904229D209E0494391FBF0F1091807F1FA
:100E300044008388994238BF1946A9801CE0834644
:100E40000068A86200F0FCFAE98B814205D25346A3
:100E500040F29E42414600F01AFB00F0F1FA00F029
:100E6000F3FAE88B40B1A86A30B9686AC8B953464A
:100E700040F2A74200F00AFBA86A90B100F0F8FA2D
:100E80008346A86AFFF720FF10F00301A86AF36AFF
:100E9000028918BF01215A448918C91A0029CEDDD8
:100EA00010B94FF0FF3000E0002038860020F876BF
:100EB00024E0384602F0F8FA20E0834600686862D1
:100EC00000B9288400F0BCFAE98B814205D2534670
:100ED00040F2D542414600F0DAFA00F0B1FA00F0F3
:100EE000B3FAE88B50B1A86A002804BF686A0028EA
:100EF00004D1534640F2DD4200F0C8FA686AB0B14E
:100F000000F0B6FA8346686AFFF7DEFEF16A10F079
:100F10000302686A0389A1EB0B0B18BF0122ABEB3C
:100F200003039A1A03D4AA68891A0029C5DDA98B7C
:100F3000708B4118A983786B00B3BA6BF16A521AAF
:100F40001CD5DFF800261368B7F93C10181A00B258
:100F5000A0EBE1004118B98704B2002CB7F93E209C
:100F600048BF40428018A0EBA200F8870904C914CA
:100F700001FA80F0A7F8400000217963B08BB16AD4
:100F8000002800F03D823A7D072A80F239827A6A91
:100F9000A2EB0108B8F1010354D4A8EB0000401CF7
:100FA00050DCB068834630B9534640F23C520FF2F1
:100FB000C06100F06CFA47F6FF70804506DB5346CF
:100FC00040F23D520FF2B86100F061FAB0680FF2E2
:100FD000D064418941451FDA0089404506DA53460D
:100FE00040F23F520FF2A86100F051FAB068028956
:100FF000A2EB08025846414604E0C91A00230281C8
:101000004381006843898B42F7DB00F043FA78B1F3
:10101000534640F24C5209E0C8F100080FFA88F13B
:1010200000F0DEFD20B1534640F2515200F02EFA9E
:10103000796AB289B06A521A8218B281B162306993
:10104000416005E0891A03D5B87E40F00200B87609
:10105000796AB26A531A00F1CE81388D1B1A5B1C73
:1010600000F3C98191420FF24C6B40F00F81FFF702
:101070002FFE00F001FA18BF01204018B08380B2A3
:101080003A8D82422AD2FFF723FEC00709D5316983
:10109000FFF71BFE00F03E0001F042F9326900F05C
:1010A000C8F9388DB0813169FFF70FFE00F0D7F92C
:1010B000FFF70EFE00F0E0F918BF01204018B083E2
:1010C000B26A796A12FA80F03A8D8A18904205D095
:1010D000534640F27F52594600F0D9F9E86A002899
:1010E00056D0FFF7F5FDC00707D5E86A00284FD0B6
:1010F0000168E96201F07AFDF7E7EC6A1BE0FFF7AF
:10110000E4FDC00713D53169FFF7DFFD80070ED47A
:10111000012001F005F931698A891043888101F0C5
:10112000FFF800F0A9F918BF01204018B08320464D
:10113000246801F05BFD54B3E168B06AB28B4B6880
:10114000B4F808808218D31AB3EB0803D7D54B68DC
:10115000D21A002A1BDD181AB081FFF7B9FD00F082
:101160007EF9FFF7B5FD00F087F918BF01204018A0
:10117000B083E2685168B26A12FA80F0884206D001
:10118000534640F2AF520FF2645100F080F9EC6226
:10119000B08BB16A091879623A8D824206D2534601
:1011A00040F2B9520FF2805100F071F9398DB08BD5
:1011B000091A3985384601F08AFAB168088910B1F0
:1011C00031630020B060FFF783FDC00703D571785D
:1011D00041F020017170EC6A002C00F01E81E16882
:1011E0004868796A884240F01881B062E068FFF789
:1011F00070FD10F003002289796A18BF0120801861
:1012000041187962E168FFF760FD10F00300228960
:10121000398D18BF01208018814206D2534640F212
:10122000DE520FF2245100F032F9E068FFF751FD71
:1012300010F00300398D228918BF0120891A081A7D
:101240003885384601F043FA6168088938B1306B57
:1012500000280CBF316300F03FFD00206060E068B3
:10126000FFF737FDC00708D5717841F02001717094
:10127000387D042804BF072139752068E8622046BC
:1012800001F0B4FCA7E740F00100C3E0384602F0EB
:101290000BF9D5F82C80B8F1000F03D100F0C6F897
:1012A000E862B8E00024D8F80C10B26A48688242BC
:1012B00008D0B4B9101A1DD500F0B8F80028F0D045
:1012C000E8620CE0B8F80800B1898842E9D200F081
:1012D000ADF80028E5D0002C14BF2060E86241463C
:1012E00029E0E3685868101A401E03D44868101AB1
:1012F000401C0BDDD8F8000018B94B68D21A002A40
:101300001CDC44465FEA0008CDD184E000F08EF892
:1013100000280090F9D0E068238900F0B1F806DDDC
:1013200042686068891A218189B200F0A5FB0098A3
:10133000206041460098BDE8F44F81E4FFF7C5FC0A
:10134000C00768D400F072F80028C8F8000062D026
:10135000D8F80C00B8F8083000F092F808DD4268C0
:10136000D8F80400891AA8F8081089B200F084FBA4
:10137000B08BB26A796A1218388D521A121A002A82
:1013800049DD00F08BF8C0070AD500F087F800F0BF
:101390003E0000F0C5FFD8F80010CA6800F049F818
:1013A0007A6A388DB16A8218D8F80000511A018122
:1013B00089B2406800F060FBD8F80000FFF784FCB9
:1013C000D8F800100A8910F0030018BF0120801817
:1013D000B083B16A7A6A11FA80F0398D5118884267
:1013E00019D053465946484601B0BDE8F04F40F287
:1013F0007B6202F061BE3846BDE8F24F02F054B89D
:10140000786A091A03D4388D091A491C03DDB87E9D
:1014100040F00200B876BDE8F18FB87EC1077FF5D5
:1014200032AF00F0FE00F3E710000020301D01F0A5
:10143000EBBB93894CF2FF010B401843908170473E
:10144000DBF8040000F02EBCE98B081AE883BBF837
:101450000810708B08187083584601F0C7BB8007CE
:1014600002D5B189481EB081B189B06800F004BBD3
:10147000C168486800F05ABF10F00300B189704796
:101480004268B16AD218521A002A7047214648466B
:1014900002F012BE494209B200F0A2BBD8F8001017
:1014A000C868808900F03CBF10B525490A8B486A9E
:1014B000531C10B1CC8AA24204D2086A0B83104498
:1014C000007D10BD121BD2B20B83805C10BDF8B53D
:1014D0001B4DAC8A064664B30020288317E0FFF753
:1014E000E3FF042825D1298B891C8C4221DBFFF7DF
:1014F000DBFF0746FFF7D8FF40EA072040F219223A
:10150000904201DA010001D14FF406707086288BF9
:10151000A0420ED2FFF7C8FF58B10228DFD0F6D3A1
:10152000FFF7C2FF0228A1BF298B801E4118298323
:10153000EDDAF1BD0248417841F010014170704789
:101540008C69002014000020417373657274696F08
:101550006E2022257322206661696C6564206174A7
:10156000206C696E6520256420696E2025730A0051
:10157000433A5C55736572735CD098D0B2D0B0D0EA
:10158000BD5C4465736B746F705CD09FD180D0BEBE
:10159000D0B5D0BAD18220D09CD09F2DD098D098F1
:1015A0005C4D502D49495F766572322E305C4D504E
:1015B0002D49495F766572322E305C4D6964646CEA
:1015C0006577617265735C54686972645F506172BB
:1015D00074795C4C7749505C7372635C636F7265BD
:1015E0005C7463705F696E2E630000007063622D2F
:1015F0003E6C697374656E65722D3E6163636570E0
:101600007420213D204E554C4C0000007463705FE7
:10161000726563656976653A2077726F6E672073CD
:1016200074617465000000007063622D3E736E6427
:101630005F71756575656C656E203E3D20706275E5
:10164000665F636C656E286E6578742D3E70290048
:101650007463705F726563656976653A2076616C64
:101660006964207175657565206C656E67746800C6
:10167000696E7365672E7020213D204E554C4C00DD
:10168000696E73616E65206F666673657421000014
:101690007062756620746F6F2073686F72742100BA
:1016A000706275665F686561646572206661696C09
:1016B000656400007463705F726563656976653A9E
:1016C000207365676D656E74206E6F742074726927
:1016D0006D6D656420636F72726563746C792074DC
:1016E0006F207263765F776E640A00007463705FC8
:1016F000726563656976653A207365676D656E74BA
:10170000206E6F74207472696D6D656420636F72F2
:10171000726563746C7920746F206F6F73657120CC
:1017200071756575650A00007463705F7265636545
:101730006976653A207463706C656E203E20726332
:10174000765F776E640A00007463705F726563652C
:101750006976653A206F6F736571207463706C658C
:101760006E203E207263765F776E640A0000000090
:10177000C24318BF002810D091F82B2093070ED534
:101780004A6890420BD0896801EA00030A409342FC
:1017900002BFC9430840884201D1012070470020A0
:1017A0007047F0B40246106895681318506803EB50
:1017B0005004C0071DD54D441BE013F8017B05F80C
:1017C000017B491EF9D1A0B1B60813F8011B06F040
:1017D0000306032E08BF13F8016B01EB06214942F3
:1017E000801C294405D011F8016B05F8016B401EDF
:1017F000F9D1A3420ED013F8016B16F0030104BF18
:1018000013F8011BC91C30090F28DAD113F8010B9A
:101810000F30D6E7F0BC02F10C0070472DE9FE4F07
:10182000042815460FF2A86B0FF2E8681ED8DFE80F
:1018300000F00317191B1B003624032D0F4600F27E
:10184000D680DFE805F09BC8C802082002F03CFA09
:101850000600DFF8AC910FD1012089F80000BFE04D
:101860002224EAE70E24E8E70024E6E743464FF4A3
:101870008B720FF28461BFE003203073002131606E
:10188000E51C311901F11000C01CAD088008AD0045
:101890008000C5F514757060AF42378138BF3C4693
:1018A00005D3E41C4FF6FC700440C4F51474748135
:1018B00006F5187100910846716872890FF2CC6ABA
:1018C0000A44904204D243464FF4987200F09AF8CA
:1018D00035B943464FF499720FF2E46100F093F882
:1018E0000121F181354670890FF2087101913F1A8B
:1018F00036E003200021207361734FF6FF722160F0
:1019000097422C6005DB019943464FF4A67200F024
:101910007AF8B8B2B0F5147F27812CBF4FF4147059
:101920003846608104F110006060217911F0030FE6
:1019300006D043464FF4A9720FF2CC6100F063F871
:101940007168728900980A44904204D2434640F27A
:10195000551200F057F861890120E0817F1A254671
:10196000012F31DB082002F0AFF90400C1D10120C2
:1019700089F80000304600F037F931E004F1130037
:101980004FF6FC72FB1C104013401818FA1C81B271
:101990009208B1EB820F23D380B202F0C9FC06009B
:1019A0001ED030191030C01C8008800000F02EF8C6
:1019B0003173307910F0030F06D0434640F27712AE
:1019C0000FF2746100F01FF80120F08100217173A3
:1019D0003046BDE8FE8F072002F076F9060001D1FF
:1019E0000020F6E7002000F011F83573ECE74346DD
:1019F0004FF4C6720FF26C6100F005F8F0E70000DA
:101A0000AF6A00205146584602F056BB70603781DD
:101A1000778100213160704738B50446042C1846A0
:101A200010D8DFE804F003090B0D0D003824059BE6
:101A30006518AB4212D20FE02424F8E71024F6E731
:101A40000024F4E70FF2CC430FF234610FF2804030
:101A500040F2C51202F030FB002032BD049B00258D
:101A6000056003B123444360027302230181418175
:101A700001224373C28132BD2DE9F04704000F46B5
:101A80000FF24C450FF28C4806D1434640F2F31258
:101A90000FF2106100F003F9207B032818BF012822
:101AA0000AD0002818BF022806D0434640F2F71299
:101AB0000FF2086100F0F3F82689B7423FD2BE1B4F
:101AC0000FF228690FF2106A15E03F1A4FF6FF7007
:101AD0008642BFB204DB434640F20B2200F0DEF840
:101AE00020893018208124682CB9434640F20F2207
:101AF000494600F0D4F86089B842E6DB207BA8B9FB
:101B00006089874212D0617B88070FD46168091B06
:101B1000791889B2204602F093FB040006D14346AF
:101B200040F21D220FF2DC5100F0B9F867816089A4
:101B30002081206808B100F057F800202060BDE83F
:101B4000F087F8B50FF288340FF2C83338B940F295
:101B50003F220FF2CC51204602F0AEFA35E00D00E4
:101B600033D04F4200290AD5BC4645891FFA8CF66E
:101B7000B54206D240F247220FF2B0512BE01FFAD5
:101B800081FC057B4668002D18BF032D07D100F1AD
:101B90001003F2199A42426011D246601EE0022DF3
:101BA00018BF012D13D1002905D542891FFA8CF3E6
:101BB0009A4202D212E011DD82B1F21942604289EA
:101BC00003898A18C918428101810020F2BD40F2C0
:101BD00077220FF27851204602F06EFA0120F2BD12
:101BE0000022AEE70122ACE72DE9F04704000FF236
:101BF000E0250FF2203908D14B4640F2D2220FF2F5
:101C0000205100F04CF8002046E0207B002818BF4F
:101C100001280AD0022818BF032806D04B4640F2FC
:101C2000DE220FF2385100F03AF800260FF25C5A2B
:101C30000FF24058E08928B94B4640F2EB2241466A
:101C400000F02DF8E089401EE08180B218BB617B76
:101C50002768207B8A070AD5206920B94B4640F2C5
:101C6000F92200F01BF821692046884710E003287C
:101C700002D12146082005E0012818BF022804D11E
:101C80002146072002F04CF802E0204602F098FAC4
:101C9000761C3C00CED1F0B2BDE8F0875146284614
:101CA00002F00ABA0146002001E00968401C002940
:101CB000FBD180B2704770B1C189491CC18189B222
:101CC00049B90FF250230FF2E8410FF2042040F21D
:101CD000393202F0F1B97047F8B504000D4618BF6B
:101CE000002D0FF2EC160FF22C270FD13B46304699
:101CF00001B0BDE8F04040F24D320FF2C84102F0B1
:101D0000DBB921892A8951182181044620680028DD
:101D1000F7D120896189884207D03B4640F255328D
:101D20000FF2D841304602F0C7F9206838B13B467F
:101D300040F256320FF2F441304602F0BDF92189EB
:101D40002889411821812560F1BD2DE9F84F05460C
:101D5000002600270C46002D18BF002C6FF00F093D
:101D60000FF26C1A0FF2AC1803D02889238998421D
:101D70005CD2434640F2BD320FF2C04144E060689D
:101D80006B68C1191FFA8BF2981902F079FC5E4456
:101D90006889B6B25F44B042BFB206DA434640F249
:101DA000CD320FF2C84100F08FF86089B84206DAF0
:101DB000434640F2CE320FF2CC4100F085F8608904
:101DC00087426889A4BF00272468864202BF002694
:101DD0002D68002D11D02CB160892189884201D154
:101DE0002068A8B92DB168892989884201D128685D
:101DF000C0B9DCB90020BDE8F28F002CFAD0434610
:101E00004FF476720FF2984100F05EF84846F2E720
:101E1000434640F2DE320FF2984100F055F86FF081
:101E20000500E8E7434640F2E332F4E76389688956
:101E3000811BDA1B9142ACBFA3EB070BA0EB060B97
:101E40009DE700002DE9F843044689461746002621
:101E50001FA00FF2C0012CB90B4640F2FE320FF268
:101E60007C4107E0B9F1000F08D10B4640F2FF3288
:101E70000FF2884102F020F900200BE0B0461FE08D
:101E8000658998B240B1A84206D324685B1B002C38
:101E9000F6D1B0B2BDE8F283ED1AADB2B8B29BB2E2
:101EA000A8426068B8BFBDB2C1181FFA88F02A46C0
:101EB000484402F0E5FB2468AE19A8447F1B0023C8
:101EC000B8B20028E5D0E2E7504602F0F5B80000CD
:101ED000417373657274696F6E20222573222066C8
:101EE00061696C6564206174206C696E652025648D
:101EF00020696E2025730A00706275665F616C6CE4
:101F00006F633A206261642070627566206C61794B
:101F100065720000433A5C55736572735CD098D06B
:101F2000B2D0B0D0BD5C4465736B746F705CD09FF1
:101F3000D180D0BED0B5D0BAD18220D09CD09F2D38
:101F4000D098D0985C4D502D49495F766572322EFD
:101F5000305C4D502D49495F766572322E305C4DB4
:101F60006964646C6577617265735C5468697264F6
:101F70005F50617274795C4C7749505C7372635C3A
:101F8000636F72655C706275662E6300636865637B
:101F90006B20702D3E7061796C6F6164202B207016
:101FA0002D3E6C656E20646F6573206E6F74206FBC
:101FB000766572666C6F772070627566000000004F
:101FC000504255465F504F4F4C5F42554653495A19
:101FD00045206D757374206265206269676765725C
:101FE000207468616E204D454D5F414C49474E4D10
:101FF000454E540072656D5F6C656E203C206D61CE
:10200000785F7531365F7400706275665F616C6C05
:102010006F633A207062756620712D3E7061796C35
:102020006F61642070726F7065726C7920616C6989
:10203000676E656400000000706275665F616C6CBD
:102040006F633A20706275662D3E7061796C6F61C6
:10205000642070726F7065726C7920616C69676E54
:1020600065640000706275665F616C6C6F633A2036
:102070006572726F6E656F7573207479706500009C
:10208000706275665F616C6C6F6365645F637573C6
:10209000746F6D3A206261642070627566206C61B5
:1020A00079657200706275665F7265616C6C6F63F2
:1020B0003A207020213D204E554C4C0070627566D0
:1020C0005F7265616C6C6F633A2073616E6520703E
:1020D0002D3E74797065000067726F77203C206D2B
:1020E00061785F7531365F7400000000706275665C
:1020F0005F7265616C6C6F633A207120213D204EE8
:10210000554C4C006D656D5F7472696D207265741D
:1021100075726E65642071203D3D204E554C4C001B
:102120007020213D204E554C4C000000696E6372BA
:10213000656D656E745F6D61676E69747564652049
:102140003C3D20702D3E6C656E0000006261642095
:102150007062756620747970650000007062756643
:102160005F667265653A2073616E6520747970658B
:1021700000000000706275665F667265653A2070E7
:102180002D3E726566203E203000000070632D3EBB
:10219000637573746F6D5F667265655F66756E6398
:1021A00074696F6E20213D204E554C4C000000009C
:1021B0007062756620726566206F766572666C6FF8
:1021C00077000000286820213D204E554C4C2920E6
:1021D000262620287420213D204E554C4C292028AD
:1021E00070726F6772616D6D65722076696F6C6178
:1021F000746573204150492900000000702D3E7421
:102200006F745F6C656E203D3D20702D3E6C656E79
:1022100020286F66206C6173742070627566206977
:102220006E20636861696E2900000000702D3E6EAB
:10223000657874203D3D204E554C4C0070627566AB
:102240005F636F70793A20746172676574206E6F96
:10225000742062696720656E6F75676820746F20EF
:10226000686F6C6420736F75726365006F66667368
:1022700065745F746F203C3D20705F746F2D3E6C01
:10228000656E00006F66667365745F66726F6D20C1
:102290003C3D20705F66726F6D2D3E6C656E000078
:1022A000705F746F20213D204E554C4C00000000A3
:1022B000706275665F636F7079282920646F65733B
:1022C000206E6F7420616C6C6F77207061636B653A
:1022D0007420717565756573210000007062756604
:1022E0005F636F70795F7061727469616C3A2069C5
:1022F0006E76616C69642062756600007062756656
:102300005F636F70795F7061727469616C3A2069A4
:102310006E76616C6964206461746170747200002F
:102320000146000A40EA012080B2704701460802D7
:1023300000F47F000A0A40EA016002F47F42104381
:1023400040EA1160704730B4002513E050F8042BC8
:10235000D30744BFA9F101039A18091F042942F8C1
:10236000045BFAD213468C0744BF15809B1CC90737
:1023700048BF1D7050F8041B0029E7D130BC7047DE
:10238000704780B500F0BDFBDFF81C090178491CDF
:102390000170C80702D5BDE8014003E201BD00009D
:1023A000FEB504460029227DDFF8C057DFF8FC683F
:1023B000DFF8FC784BD0042A18BF072A47D1606F9A
:1023C000002804BF208DB0F5066F40D0A07EC30664
:1023D00006D43B4640F20F1261A1304601F06CFE7C
:1023E000208B0190231DE18A00912246616AE06CF6
:1023F00001F0ECF9204600F0D4FC2869A04203D19A
:10240000C068286106E0084620B1C168A142FAD13F
:10241000E168C1600020E06001212970207D04286E
:1024200008D10A2121756869E0606C6101F040FD06
:102430000020FEBDDFF87C080168A14202D1FFF751
:1024400079F8F5E72146012001F06AFCF0E71AB1BE
:10245000022A3FD013D346E0E08A0028F2D0A868D1
:10246000A04203D1C068A86006E0084620B1C16858
:10247000A142FAD1E168C1600020E060E2E77CB9E6
:102480003B46C02243A1304601F016FE0020017DEC
:10249000012905D03B46C12238A1304601F00CFE8F
:1024A00001210FF2F022002652F82100006804E01A
:1024B000836FA34208BF8667C0680028F8D1491C13
:1024C0000429F1D3214605F10C0000F08DFC2146D2
:1024D0000220B9E7214605F1100000F085FC01203B
:1024E00028702146B0E72046BDE8FE4038B505001B
:1024F00040F00980DFF8B83726A1DFF8B00740F2D6
:102500004D1201F0D9FD287D032804D004280AD0FB
:10251000072813D019E0284600F0B0FE040007D1C8
:102520000520287505E0284600F0A8FE0400F7D035
:102530006CB9284600F0EDFF204632BD284600F079
:102540009DFE0400F4D10920EBE7002032BD14F118
:10255000010FF1D1A87E40F00800A876F5E7000051
:102560007063622D3E666C61677320262054465F5F
:102570005258434C4F534544000000007063622D95
:102580003E7374617465203D3D204C495354454E63
:102590000000000070636220213D204E554C4C002D
:1025A000017D012903D0817E41F010018176012156
:1025B000F6E600002DE9FE4F06468B46307D0128E9
:1025C00040F00980DFF8E83629A1DFF8E0064FF493
:1025D000F07201F071FD317DDFF890750A290BD1A1
:1025E000314607F1140000F0FFFB314603B0BDE8AF
:1025F000F04F012001F094BBF06C02900024756A4A
:10260000D6F88C80D6F810A0F08AA14621B960B126
:1026100000F04FF8F46008E08146314607F1100001
:1026200000F0E2FB01205C463870F06E08B100F06B
:10263000D4FAB06E08B100F0D0FA306F08B100F0F3
:10264000CCFA4CB1308B0190CDF80090331D02983C
:102650003246294601F0BAF8314600F027F85FEA21
:10266000080003D06FF00C015046C047BDE8F78F5B
:10267000646F6E27742063616C6C207463705F619B
:10268000626F72742F7463705F6162616E646F6EEB
:1026900020666F72206C697374656E2D706362734F
:1026A00000000000012185E72946ED68012001F0C6
:1026B00037BBB868B04203D1C068B86070470846FD
:1026C00020B1C168B142FAD1F168C160704770B5FC
:1026D0000446218D656A628E681840F23146B24226
:1026E000E36AA8BF4FF48662C01A821A01D46185DA
:1026F00070BDE81A0028C8BF00250DDC5D1BB5F5CC
:10270000803F09D30FF640030FF6B4010FF6100017
:102710004FF4427201F0D0FC6585002070BDF8B521
:1027200004460F46207D0FF2F8750FF61C060128AF
:1027300006D133464FF448720FF6A00100F099FB22
:10274000208D40F661023F18B9B29142278506DA22
:10275000BFB27FB9207D072818BF092803D14FF4E5
:102760000660208506E0334640F22D320FF69401D4
:1027700000F07FFB2046FFF7AAFFB0F5067F08DBDD
:10278000A07E40F00200A0762046BDE8F24000F0B6
:10279000C0BEF1BD1C000020180000202000002059
:1027A000240000202DE9FE4FDFF8C0034168491CDA
:1027B000416001460E464878401C487042E1ED6891
:1027C000002D00F08E81287D48B90FF27C730FF642
:1027D00058010FF24C704FF47C7201F06DFC287DB3
:1027E000012809D10FF260730FF668010FF2307003
:1027F00040F2F13201F060FC287D0FF2247B0A28C0
:1028000008D10FF244730FF6780140F2F2325846C5
:1028100001F052FC7078697F8142D0D0297D6877C1
:1028200000270229B84605F1400905F1940A05D1AF
:1028300099F802000628A8BF01276DDA99F802204E
:102840000C2AA8BF01275BDA9AF80100F0B10FF655
:10285000A41108449AF8001010F8010C8142BCBF82
:10286000491C8AF800109AF80010814248DB28467B
:1028700001F0D7F8002843D18AF800009AF8010047
:1028800006283DD8401C8AF8010039E0B5F930002F
:1028900003005CBF401C2886D9F82C0080B3B5F932
:1028A0003000B9F9003098422ADB02290ED0B5F980
:1028B0003C00B5F93E100C2A01EBE00128BF0C22C8
:1028C0000FF6201082569140A9F8001005F1400043
:1028D00005F14001A5F8308000898A8B698E90420D
:1028E00088BF1046490040088BB2984238BF08465E
:1028F000A9F80A00688EA9F80800284601F008F82F
:10290000287D062808D1A87EC10605D57068296AE9
:10291000401A292828BF7F1C287A01072BD5287D3B
:10292000042818BF072826D17168286ADFF8E02537
:10293000081AD9F8501052184FF4FA73B2FBF3F397
:10294000834203D27F1C4FF0010814E09AF8022062
:10295000DFF8C03503FB02114FF4FA72B1FBF2F15C
:10296000814208D2284601F036F820B99AF80200D0
:10297000401C8AF80200D9F8300078B171682A6AE0
:10298000B9F900304FF0060C891A13FB0CFC6145B5
:1029900004D300F022F90020C9F83000791C287D0A
:1029A000032804D170682A6A801A292805E00928BA
:1029B00005D170682A6A801AF12828BF0F46FFB235
:1029C000002F42D0D9F84CA0284600F0EAF9002C9C
:1029D00030690DD0854208D10FF26C530FF2D061EF
:1029E00040F28942584601F067FBE868E0600CE07D
:1029F000A84208D00FF250530FF2E06140F28D422E
:102A0000584601F059FBE8683061B8F1000F0AD070
:102A1000288B01902B1DE98A00912A46696AD9F812
:102A20000C0000F0D3FE2F69FFF73EFE0020BAF144
:102A3000000F307008D06FF00C013846D047307866
:102A4000002801D035690024BAE62C46E07E217FBB
:102A5000ED68401CE076C0B28842F5D30020E076F5
:102A60003070D4F888203AB12069214690473178F7
:102A70000029E7D1002801D100F075F8A0E6A842AE
:102A800006D0534640F2CF423146484601F014FB8F
:102A9000E8687861FFF708FE8DB3287D0A2806D024
:102AA000534640F2BD424146484601F005FB786876
:102AB000296A401AF12811D3284600F072F9786982
:102AC000002CDCD0854206D1534640F2CB42594619
:102AD000484601F0F1FAE868E060DBE72C46ED6873
:102AE000DAE7374600247D690FF274660FF2486B0F
:102AF0000FF214680FF228490FF24C4ACCE7BDE8F8
:102B0000F78F70B5DFF804546878401C68702C6942
:102B10001EE06077A07EC10705D500F021F8A07EF9
:102B200000F0FC00A076A07E010705D500F0F700BC
:102B3000A0762046FFF7DAFCE668606F38B1002126
:102B40002970204600F014F828780028DFD1344698
:102B50002CB16878617F8142DBD1E468F8E770BD11
:102B600040F00200A076204600F0D3BC1000002008
:102B70002DE9F041054600206F6FD5F880407E7B3F
:102B80006867002C03463A46294602D02869A047C8
:102B900001E000F04BF801006FF00C0812D1B00614
:102BA00018D5288DB0F5066F1CBF401C2885D5F8B8
:102BB00080407CB12869002300222946A047404577
:102BC00008D101E0404501D1404604E06F676FF055
:102BD000040000E00020BDE8F08110B5002803E00B
:102BE000046800F003F82000FAD110BD10B504000D
:102BF00009D0606808B1FEF7F7FF2146BDE8104034
:102C0000032001F08DB810BD38B50546032001F052
:102C10005BF8040001D1002032BD1022294601F0EA
:102C20002FFD6068FFF747F8204632BD10B514004D
:102C3000084607D02189FFF772FD2046FEF7D4FF32
:102C4000002010BD002BFBD1BDE81040FFF7A8BC51
:102C5000B0B5082818BF0928044609D00FF2E823A8
:102C60000FF224510FF2B82040F2DC5201F024FAA6
:102C7000DFF8983218695F680021002209E0057DBD
:102C8000A54205D1056A7D1B8D4224BF2946024617
:102C9000C0680028F3D12AB1BDE8B0400021104639
:102CA000FFF788BCB0BD0000B06A0020202F0008EC
:102CB000482F0008C0690020F8B5064600F06EF8FD
:102CC0000400924D42D168696C680022002106E040
:102CD000036AE31A934224BF1A460146C0680028DB
:102CE000F6D111B10846FFF7DDFC00F057F80400FB
:102CF0002CD10920FFF7ACFF00F050F8040025D1DB
:102D00000820FFF7A5FF00F049F804001ED1802E2F
:102D1000ACBF7F2232462869002300210DE0447DAC
:102D2000A24221BFD5F804E0076AAEEB07079F4235
:102D300002D33B4601462246C0680028EFD111B1BC
:102D40000846FFF7AFFC00F029F8044624B39821A9
:102D5000204601F0F7FC04F1480066754FF48661E7
:102D600001834FF40662628522854FF40673FF22C9
:102D7000A27263860622A4F84020E28701234FF066
:102D8000FF32228603806A6822626B78624A637728
:102D900041808264614981632046F2BD012000F0D8
:102DA00093BF38B50546287D00281CBF0A28012896
:102DB00019D005F16404206918B1FEF715FF002051
:102DC0002061E068FFF709FF0020E0604FF0FF316D
:102DD00029866068FFF701FFA068FFF7FEFE00206C
:102DE0006060A060208031BD70B502460C4610685E
:102DF000A04203D1C068106006E0084620B1C16857
:102E0000A142FAD1E168C1600022E2602046FFF7EA
:102E1000C8FF207D0A2809D0012826D0A07EC1073E
:102E200004D5FFF79DFE207D01281ED0D4F8680050
:102E30000FF2EC0544A630B1334640F253720FF264
:102E4000583100F016F8E06E30B1334640F254725B
:102E50000FF25C3100F00DF8206F30B1334640F2D4
:102E600056720FF2683100F004F800202075E082FD
:102E700070BD284601F020B9244A906951680818AD
:102E80009061704710B50446084601F05FFC0028C9
:102E90001EBF408C01B2002904D0283880B2844281
:102EA00088BF0446204610BD38B50446084600E0F9
:102EB000284638B101682268C568914208BFFFF70B
:102EC000F1FBF5E731BD70B504001CBF2068002898
:102ED0000D4619D00D4E31692046FFF7E5FFB16868
:102EE0002046FFF7E1FF002D1CBF286800280BD00B
:102EF000F068002807E002682368C1689A4204BFAE
:102F00002E6806600800F6D170BD00001000002099
:102F1000B84C0A00F824010000DD6D002D2C0008DB
:102F2000417373657274696F6E2022257322206667
:102F300061696C6564206174206C696E652025642C
:102F400020696E2025730A00433A5C5573657273DD
:102F50005CD098D0B2D0B0D0BD5C4465736B746F58
:102F6000705CD09FD180D0BED0B5D0BAD18220D0F5
:102F70009CD09F2DD098D0985C4D502D49495F76BC
:102F80006572322E305C4D502D49495F7665723244
:102F90002E305C4D6964646C6577617265735C5456
:102FA000686972645F50617274795C4C7749505CF7
:102FB0007372635C636F72655C7463702E63000090
:102FC0006E65775F7263765F616E6E5F776E6420A9
:102FD0003C3D20307866666666000000646F6E27B0
:102FE000742063616C6C207463705F7265637665D6
:102FF0006420666F72206C697374656E2D706362F5
:10300000730000007463705F7265637665643A20D4
:103010006C656E2077726170706564207263765F94
:10302000776E640A000000007463705F736C6F77E2
:10303000746D723A20616374697665207063622DE5
:103040003E737461746520213D20434C4F534544C9
:103050000A0000007463705F736C6F77746D723A6E
:1030600020616374697665207063622D3E737461BC
:10307000746520213D204C495354454E0A00000000
:103080007463705F736C6F77746D723A20616374F0
:10309000697665207063622D3E73746174652021CA
:1030A0003D2054494D452D574149540A0000000028
:1030B0007463705F736C6F77746D723A206D6964BE
:1030C000646C652074637020213D207463705F61BF
:1030D00063746976655F7063627300007463705F28
:1030E000736C6F77746D723A2066697273742070B6
:1030F0006362203D3D207463705F6163746976652F
:103100005F706362730000007463705F736C6F774D
:10311000746D723A2054494D452D574149542070E1
:1031200063622D3E7374617465203D3D2054494DAA
:10313000452D5741495400007463705F736C6F777D
:10314000746D723A206D6964646C652074637020DC
:10315000213D207463705F74775F70636273000059
:103160007463705F736C6F77746D723A2066697206
:10317000737420706362203D3D207463705F7477C8
:103180005F70636273000000696E76616C69642031
:103190007374617465000000756E73656E742073DE
:1031A00065676D656E7473206C65616B696E670031
:1031B000756E61636B6564207365676D656E7473AE
:1031C000206C65616B696E67000000006F6F73654E
:1031D00071207365676D656E7473206C65616B69D2
:1031E0006E670000010203040506070707070707CB
:1031F0000700000003060C18306078002DE9F0414C
:103200000E4605461146891914319846002289B2A6
:103210000120FEF703FB04002DD0608906F11401A4
:10322000884204DA00F01CFB732200F045FF676857
:10323000E88AFFF775F838803606288BFFF770F8B4
:103240007880C7F80480B60E686AFFF76FF8761DBD
:10325000B860360346F01006B0B2FFF761F8B881E7
:10326000688DFFF75DF8F881002038827882698DDB
:10327000686A4118E9622046BDE8F08138B5054624
:10328000AC6EC4B100E0044620680028FBD1E168C0
:103290008889FFF745F810F0070F0CD10120FFF7E0
:1032A0003FF8E1688A8910438881A87E40F02000B9
:1032B000A876002032BD2846BDE83440012163E0F5
:1032C0002DE9F047089D8146E8074CBF04260026FB
:1032D0000F4692469846032000F0F6FC040003D106
:1032E0003846FEF781FC1AE0A57200202060676076
:1032F0003989B14280F208800FF270531CA10FF29D
:10330000E850BA2200F0D8FE3889801B20811421B1
:103310003846FEF765FC20B12046FFF767FC002029
:1033200023E060684168E160B9F81600FEF7F8FF35
:10333000E1680880B9F81800FEF7F2FFE1684880FC
:103340004046FEF7F3FFE1684860701006EB9076A8
:10335000B610761D4AEA063188B2FEF7E1FFE16851
:1033600088810020E16848822046BDE8F08700009F
:10337000702D3E746F745F6C656E203E3D206F70E3
:10338000746C656E000000002DE9F84F8946002737
:1033900019F0030F05460FF2505A0FF2D04806D12C
:1033A000434640F21B320FF26C7100F07AF805F1DF
:1033B00062063088082803DC4FF6FD72904202D383
:1033C0005FEAC97020D55FEA897146BF01274FF0D7
:1033D000040BBB46002259460020FEF71FFA0400EA
:1033E00012D06089584506DA434640F241320FF266
:1033F0007C7100F056F800974A46AB6D214628468E
:10340000FFF75EFF040006D1A87E40F08000A8769A
:103410004FF0FF3043E0207B10F0030F06D043460F
:1034200040F249320FF2807100F03BF8208930B150
:10343000434640F24A320FF2887100F032F805F14B
:103440006807396811B93C6004E001460868002843
:10345000FBD10C60002019F0030F708002D0A86D22
:10346000401CA8655FEAC97003D5A97E41F0200120
:10347000A9766068FEF716FC31884018308080B26B
:1034800060B17868002804BF3968002906D1434636
:1034900040F26D320FF2547100F003F80020BDE8E5
:1034A000F28F504600F008BEFEB50646F06CFEF7FF
:1034B0003DFF0346002200213046FFF79FFE040037
:1034C00006D1B07E40F00300B0766FF00100FEBD83
:1034D000301D01F03BF910B96FF003070BE00290CB
:1034E000321D062001902046717A00913146B37A50
:1034F00001F010FA07463D462046FEF775FBB07E08
:10350000002D14BF40F0030000F0FC00B0763846F8
:10351000FEBD2DE9F84F05460FF25038287D0128F1
:1035200006D1434640F2ED320FF2E86100F0F4F8C4
:10353000A2490868A84200F0DF8005F14807B98A6F
:103540003888814234BF00910090A87E3C6A810790
:1035500009D524B100F036F900F0D7F803D2284697
:10356000BDE8F24FA0E77E6A26B100E0064630686B
:103570000028FBD1281D01F0E9F85FEA000907D017
:10358000002D1CBF2868002807D119F1040002D1C2
:103590006FF00300B1E000682860002C17D000F045
:1035A00011F9696C2389009A401AC3189A420FD204
:1035B00072B1B98A8A420BD1786A48B905F194018F
:1035C0004878002803D1002201200A7048708BE05F
:1035D00000F0F8F800F099F8F9D3E1688889FEF76F
:1035E0009FFE400706D5434640F246420FF24C612B
:1035F00000F092F8786A98B1AA7E12F0440F0FD1C9
:10360000396A29B1086858B90889698E884207D291
:10361000388B28B1788B082802DC12F0A00F63D019
:10362000287D022806D01020FEF77AFEE1688A89FC
:10363000104388814A462946204600F070F8010070
:1036400027D120683862297D022903D0A87E00F0A6
:10365000FC00A87600F0B6F8824600F03EFA10F0C2
:103660000301208918BF0121504408187968091AFC
:1036700048BF786000F031FA10F00300218918BFCC
:103680000120401829D000222260786A30B97C627B
:1036900021E0A97E41F08001A9762EE000F092F8A9
:1036A000F168824600F08FF8BAEB000012D505F100
:1036B0006C0ADAF8000010B3C16800F084F8E16821
:1036C000834600F080F8BBEB000048BFDAF800A0AA
:1036D000EFD414E03460264602E02046FFF786FA75
:1036E0003C6A002C7FF474AF386A08B90021B983B2
:1036F000A87E00F07F00A8760020BDE8F28FDAF8FF
:1037000000002060CAF80040EAE7696C2389009A4B
:10371000401AC0188242704773A000F0CDBCFEB5BD
:1037200004460E466068C1890129154601D0002073
:10373000FEBD706AFEF7FAFDE1688860708DFEF7E5
:10374000EFFDE168C881706A728D8218F26201F142
:103750001407A07AC10709D5311D4FF40670FFF791
:1037600091FB40F00170FEF7E1FD3860B6F93000E2
:10377000002844BF00213186706B28B910490868C1
:10378000706300F01FF8B0636068E1684268048904
:10379000438941608A1A92B29B1AA21A028143811C
:1037A00000220A820621029501913146727A009226
:1037B000321DB37A01F0AEF8FEBD0000C0690020F2
:1037C00014000020E1684868FEF7B0BD2DE9FF470E
:1037D0008146884615469A46002214210120FEF7AC
:1037E0001DF804003AD06089142805D200F038F89A
:1037F00040F24D5200F060FC0D9E0C986768FEF799
:103800008FFD38803046FEF78BFD78804846FEF706
:103810008DFD78604046FEF789FDB86045F21400E2
:10382000FEF77EFDB881002146F20800F88139825A
:103830007982504600F08AFF50B1029000220620A3
:10384000019000922946FF235246204601F062F87B
:10385000204604B0BDE8F047FEF7C6B9BDE8FF87D3
:103860000FF208030FF27C211FA07047433A5C550A
:10387000736572735CD098D0B2D0B0D0BD5C446533
:10388000736B746F705CD09FD180D0BED0B5D0BA4E
:10389000D18220D09CD09F2DD098D0985C4D502DB7
:1038A00049495F766572322E305C4D502D49495F33
:1038B000766572322E305C4D6964646C6577617236
:1038C00065735C54686972645F50617274795C4CB2
:1038D0007749505C7372635C636F72655C7463708C
:1038E0005F6F75742E630000417373657274696F46
:1038F0006E2022257322206661696C6564206174E4
:10390000206C696E6520256420696E2025730A008D
:1039100000F134039A6B0AB970470A46116800290E
:10392000FBD1596B116000219A6B99635A63997BA3
:10393000FF291CBF491C997300211960E9E5F8B5FE
:1039400000F13405AC6BF4B12168A96300F168069D
:10395000306850B1C168FFF736FFE1680746FFF7EE
:1039600032FF3F1A48BF3668F2D4316821603460B4
:10397000206808B900212986A87BFF281CBF401CAD
:10398000A87300202860F1BD38B5044604F148054D
:10399000686AF8B1A07E41071CD42046FFF7CFFF2C
:1039A000A88A2988814238BF084600EBD0704010B1
:1039B000618E82B2B2EB410F38BF4800688001EBE4
:1039C00041016888091829800020A27E208642F0E3
:1039D0000402A27631BD3EB50546E86C401EFEF7F6
:1039E000A5FC0346002200212846FFF707FC04003F
:1039F00002D14FF0FF303EBD281D00F0A7FE10B9E8
:103A00006FF0030508E000F062F82A1DAB7A294642
:103A1000204600F07FFF05462046FEF7E5F82846E1
:103A20003EBD2DE9FF410646F46E1CB9B46E0CB9DB
:103A3000002049E000F051F8C00704D521894D1E4F
:103A4000AD41ED0F00E00025E068436885F001021C
:103A500000213046FFF7D2FB5FEA000808BF4FF0B5
:103A6000FF3031D0D8F804704DB11120FEF758FC6A
:103A7000BA894CF2FF010A401043B88109E060683E
:103A8000218903895B1A9BB2012207F11401FEF719
:103A9000D9F9FFF797FEF16C401C091A48BFF06492
:103AA000301D00F053FE10B96FF0030408E000F081
:103AB0000EF8321DB37A3146404600F02BFF044623
:103AC0004046FEF791F8204604B0BDE8F081029030
:103AD00000210620019000917047E0688089FEF780
:103AE0001FBC0000636865636B20746861742066A6
:103AF0006972737420706275662063616E20686FEE
:103B00006C6420737472756374207463705F68648E
:103B1000720000007463705F656E71756575655F36
:103B2000666C6167733A206E6565642065697468C8
:103B30006572205443505F53594E206F7220544396
:103B4000505F46494E20696E20666C61677320287D
:103B500070726F6772616D6D65722076696F6C61EE
:103B60007465732041504929000000007463705F40
:103B7000656E71756575655F666C6167733A206324
:103B80006865636B20746861742066697273742061
:103B9000706275662063616E20686F6C64206F7060
:103BA000746C656E000000007365672D3E74637071
:103BB000686472206E6F7420616C69676E65640062
:103BC0007463705F656E71756575655F666C61675E
:103BD000733A20696E76616C6964207365676D6500
:103BE0006E74206C656E6774680000007463705FAB
:103BF000656E71756575655F666C6167733A20699E
:103C00006E76616C6964207175657565206C656E92
:103C100067746800646F6E27742063616C6C207435
:103C200063705F6F757470757420666F72206C6955
:103C30007374656E2D7063627300000052535420DC
:103C40006E6F742065787065637465642068657252
:103C50006521000030B5816800220A6000234268B7
:103C6000D21C9208920005E00C6814600A605B1C8C
:103C700005882A444488A342F6DB30BD38B50024C9
:103C800078A5A0B255F82000FFF7E4FF641CA1B2AC
:103C90000929F6D331BD000010B58068046884B1ED
:103CA0002168016014F0030009D000BF0FF2E003A7
:103CB0000FF2B80123A040F2491200F0FDF92046AE
:103CC00010BD002010BD000080B5092808DB00BF32
:103CD0000FF2BC030FF230111AA040F2871203E07A
:103CE00060A151F8200003E000F0E6F9002002BDD9
:103CF000BDE80240D0E7000038B504460D4615F097
:103D0000030008D00FF288030FF21C110DA040F23F
:103D10009D1200F0D1F9A06801682960056031BDED
:103D2000092808DB0FF268030FF21C1105A040F20E
:103D3000DB1200F0C1B919B14AA252F82000DBE74A
:103D400070470000417373657274696F6E2022259D
:103D50007322206661696C6564206174206C696EF1
:103D60006520256420696E2025730A006D656D70DD
:103D70005F6D616C6C6F633A206D656D7020707261
:103D80006F7065726C7920616C69676E65640000A4
:103D9000433A5C55736572735CD098D0B2D0B0D0A2
:103DA000BD5C4465736B746F705CD09FD180D0BE76
:103DB000D0B5D0BAD18220D09CD09F2DD098D098A9
:103DC0005C4D502D49495F766572322E305C4D5006
:103DD0002D49495F766572322E305C4D6964646CA2
:103DE0006577617265735C54686972645F50617273
:103DF00074795C4C7749505C7372635C636F726575
:103E00005C6D656D702E63006D656D705F6D616CCE
:103E10006C6F633A2074797065203C204D454D509D
:103E20005F4D4158000000006D656D705F66726502
:103E3000653A206D656D2070726F7065726C7920C7
:103E4000616C69676E6564006D656D705F66726553
:103E5000653A2074797065203C204D454D505F4D8A
:103E60004158000010A000081CA0000828A000086D
:103E700034A0000840A000084CA0000858A000088A
:103E800064A0000870A0000880B5FEF77AFA4549E2
:103E90000868002802BF44490868002805D0BDE82A
:103EA000084000224149FA2032E04149086001BD42
:103EB0003F49086868B93B4A1068002802BF3A4A7F
:103EC0001068002805D001220A60FA200022374934
:103ED0001EE0704710B50446606880472068354989
:103EE0002246BDE8104013E038B5324C6CA505F110
:103EF000080200F009F805F1100200F005F800F0E2
:103F000035FF2D49486031BD21464FF47A70FFE7F7
:103F1000F8B505460E4617460620FFF7D5FE040005
:103F20000AD101B0BDE8F0400FF2F8030FF2B4017E
:103F300022A0D42200F0C0B800F018FF1E4B0146AA
:103F4000186810B92A46596002E05A6849198A1A55
:103F500000212160A660E760626028B141688D425F
:103F600004D24D1B456020601C60F1BD02466168B3
:103F70005368CB1A6360116869B14E68B34228BFB9
:103F80000A46F4D207E09D4202D2406845196560B6
:103F900021601460F1BD0029F5D04E68F31A4B6022
:103FA000F6E700002000002024000020893E0008E1
:103FB000A06A0020D53E00086C6A0020417373653A
:103FC0007274696F6E2022257322206661696C65A8
:103FD00064206174206C696E6520256420696E2000
:103FE00025730A007379735F74696D656F75743A30
:103FF0002074696D656F757420213D204E554C4CC1
:104000002C20706F6F6C204D454D505F5359535F9E
:1040100054494D454F555420697320656D7074792E
:1040200000000000433A5C55736572735CD098D011
:10403000B2D0B0D0BD5C4465736B746F705CD09FC0
:10404000D180D0BED0B5D0BAD18220D09CD09F2D07
:10405000D098D0985C4D502D49495F766572322ECC
:10406000305C4D502D49495F766572322E305C4D83
:104070006964646C6577617265735C5468697264C5
:104080005F50617274795C4C7749505C7372635C09
:10409000636F72655C74696D656F7574732E630010
:1040A000FA00000083230008E8030000B55D000863
:1040B000E8030000F18400080EB4C0B5024603A86E
:1040C00000210190009101AB0121044878440C309B
:1040D00000F098FE06BC5DF810FB00BF63610000B5
:1040E000F8B5DFF84C530FF254362B680FF28C37CB
:1040F00004469C4206D23B4640F25D120FF2643108
:1041000000F044F86868844206D33B464FF4AF722F
:104110000FF2E03100F03AF8207930B13B4640F23E
:104120005F120FF2EC3100F031F8208840F241616B
:10413000884206D33B464FF4B1720FF2F03100F0E3
:1041400025F8296822888B189C420ED0187960B90E
:104150006868834209D0AE689E4208BFAC60188888
:1041600020808E1C1B88601AF05266888B19A3422F
:104170000BD0187948B9A868A04208BFAB60208866
:1041800018805A1A2388891CCA52F1BD3046FFF79D
:1041900093BFA74810B500F10F01890800238900DB
:1041A00001604B800B714FF4C8620A8001F5C8634F
:1041B000436001241C711A805A80816010BD000088
:1041C000F8B5040000F03A8014F003000FF26C25FB
:1041D000AAA607D033464FF4D6720FF27C31284698
:1041E000FFF76AFF924F3868844202D379688C42A5
:1041F00007D3334640F2AF120FF280312846FFF763
:104200005BFF3868844219D379688C4216D214F85F
:10421000040C38B933464FF4E0720FF27831284677
:10422000FFF74AFF002004F8040CA4F10800B96865
:10423000884238BFB860BDE8F24051E7F1BD0000E8
:104240002DE9F047C91C4FF6FC7211400C460C29B1
:1042500032BF0C2440F2416291422DD2744F0FF2D2
:10426000DC190FF2182A80463868804502D37B6833
:10427000984507D34FEA0A034FF4FA72CAA1484699
:10428000FFF71AFF3E68B0454ED3786880454BD2A1
:10429000A8F1080138F8080C8E1B801BA0F1080556
:1042A000ADB2A54206DA534640F20622C4A1484602
:1042B000FFF702FFA54201DA002036E0AC4233D01E
:1042C000396838F8080CBA680B18187988B9A41935
:1042D0000834A4B218880D199A4208BFBD600B1D9E
:1042E00000221A552880881C065328F8084C288874
:1042F00015E004F11400854216D3A4190834A0B2C5
:104300000B18934238BFBB600F1D00223A5438F897
:10431000082C1A808A1C165228F8084C1888B0F508
:10432000C86F1CBF891C0C524046BDE8F0870000D6
:104330002DE9F04201004ED0C11C4FF6FC70014047
:104340000C2938BF0C2102D3B1F5C86F43D8384DC2
:10435000AA682B68D71ABFB2894600E03788C9F52A
:10436000C864A74237D2DE19344620790028F5D137
:104370002088C01B08384845F0D309F11406B04224
:1043800019D3C919083188B203F1040C00260CF8BE
:10439000006003EB000C2688ACF800609E1C3752CE
:1043A000012020712180BCF80000B0F5C86F04D056
:1043B0009F1C395201E00120207194420FF27C07CA
:1043C0002EA616D16968107940B18A421CBF1088A8
:1043D0001A18F8D102E00020BDE8F0828A4218BF26
:1043E0000028AA6005D0334640F2CF227CA100F01D
:1043F00021F86868A14409F10801884205D23346D2
:104400004FF435727DA100F015F814F003000CD0C4
:104410004FEA060340F2D62284A100F00BF833469F
:104420004FF436728DA100F005F804F10800D3E7CF
:10443000A05800203846FFF73FBE00004173736567
:104440007274696F6E2022257322206661696C6523
:1044500064206174206C696E6520256420696E207B
:1044600025730A00706C75675F686F6C65733A201E
:104470006D656D203E3D2072616D0000433A5C55D4
:10448000736572735CD098D0B2D0B0D0BD5C446517
:10449000736B746F705CD09FD180D0BED0B5D0BA32
:1044A000D18220D09CD09F2DD098D0985C4D502D9B
:1044B00049495F766572322E305C4D502D49495F17
:1044C000766572322E305C4D6964646C657761721A
:1044D00065735C54686972645F50617274795C4C96
:1044E0007749505C7372635C636F72655C6D656D78
:1044F0002E630000706C75675F686F6C65733A209F
:104500006D656D203C2072616D5F656E640000001A
:10451000706C75675F686F6C65733A206D656D2DA3
:104520003E75736564203D3D20300000706C7567FA
:104530005F686F6C65733A206D656D2D3E6E6578B2
:1045400074203C3D204D454D5F53495A455F414CD9
:1045500049474E45440000006D656D5F66726565B4
:104560003A2073616E69747920636865636B2061BA
:104570006C69676E6D656E74000000006D656D5F3F
:10458000667265653A206C6567616C206D656D6F5C
:10459000727900006D656D5F667265653A206D65C4
:1045A0006D2D3E75736564006D656D5F7472696D28
:1045B0003A206C6567616C206D656D6F72790000E3
:1045C0006D656D5F7472696D2063616E206F6E6CD6
:1045D0007920736872696E6B206D656D6F727900FA
:1045E0006D656D5F6D616C6C6F633A20216C6672F6
:1045F00065652D3E75736564000000006D656D5F37
:104600006D616C6C6F633A20616C6C6F6361746593
:1046100064206D656D6F7279206E6F742061626FBA
:1046200076652072616D5F656E642E006D656D5FED
:104630006D616C6C6F633A20616C6C6F6361746563
:1046400064206D656D6F72792070726F7065726C29
:104650007920616C69676E65642E00006D656D5F21
:104660006D616C6C6F633A2073616E69747920635D
:104670006865636B20616C69676E6D656E740000C0
:1046800062B38B0708D0521E11F8013B00F8013BC2
:1046900000F024808B07F6D1830740F0208000BF14
:1046A000103A07D330B4B1E83810103AA0E8381007
:1046B000F9D230BC530724BFB1E80810A0E80810B5
:1046C00044BF51F8043B40F8043BD20724BF31F803
:1046D000022B20F8022B44BF0B7803707047121F87
:1046E00017D35B0009D151F8043B20F8023B1B0CA7
:1046F000121F20F8023BF6D20BE051F8043B00F801
:10470000013B1B0A20F8023B1B0C121F00F8013B67
:10471000F3D238BF121D521E24BF11F8013B00F81E
:10472000013BF8D87047B1F5807F02D34FF0FF30DE
:1047300070470170012070470078401E8041C043DF
:10474000C00F7047002201F01BBB000070B502468D
:10475000AD4814680068A0B190F82B3003F0050153
:104760000529F7D141680029F4D0856805EA0406D7
:1047700029408E4204D09907ECD4C3689C42E9D109
:1047800070BDA248006840B190F82B1001F00501FF
:10479000052902D141680029F2D1002070BD2DE920
:1047A000F84F06468B46776839780809042834D1D3
:1047B000880000F03C087888FDF7B2FD3189884216
:1047C000044603D221463046FDF756F9708940452C
:1047D00023DB3189A14220D3B8F1140F1DDB3869E6
:1047E0008B4D6861F8682861287D00F0F000E028B2
:1047F00017D19BF82B00C10737D5DBF80400A0B315
:104800005C4628695946FCF7B3FF30B9287C00F0B4
:10481000F000E02818BF002C2BD13046FDF7E4F95A
:1048200031E04FF001095C46DFF8DCA194F82B0081
:10483000C1070AD5606840B16A698242E1D0214669
:104840001046FCF795FF0028DBD1B9F1000F0ED020
:10485000287D7F2809D0DAF800404FF000095C4538
:1048600008BF2468002CE1D1CBE70024C9E7246805
:10487000F5E7F8884FF63F71084207D0304601F05F
:104880003FFC060001D1002042E077682C60C5F8AB
:1048900004B0AF60C8F100013878800000F03C003F
:1048A000A88109B23046FDF79BF9787A01280DD02E
:1048B000062806D011280ED15946304601F0F1FEE7
:1048C0001FE059463046FBF75FFC1AE05946304678
:1048D00001F0F4FF15E068692146FCF749FF68B96B
:1048E000287D00F0F000E02808D041463046FDF772
:1048F00079F977600221304602F06EF83046FDF714
:1049000073F9002028606860A860A8812861686148
:10491000BDE8F28F7FB50A9E0C4622B100291ABF6E
:1049200009680029341D0999089D01910296009596
:10493000214600F003F804B070BD00002DE9FC47EB
:1049400006468846F0890FF2D4090FF2041A0128AE
:1049500014461D4606D0534640F2333239A148462C
:10496000FFF7AAFB002C37D014213046FDF738F9A9
:1049700010B16FF0010044E070897768142807D205
:104980004FEA0A0340F2613250A14846FFF794FB18
:104990000B980A993D727872452220681D4D386146
:1049A0003A7079703089FDF7BBFC78800020F88080
:1049B0002888FDF7B5FCB8802888401CB8F1000FA6
:1049C000288003D114480168F96002E0D8F800009B
:1049D000F8600021798103E07168086900906C46F5
:1049E0000C9B588C40B13189884205D22246194629
:1049F000304601F06BFC04E018465B692246314604
:104A00009847BDE8F68700005C6A0020606A0020D5
:104A1000286A0020AC6A00208CA2000841737365EC
:104A20007274696F6E2022257322206661696C653D
:104A300064206174206C696E6520256420696E2095
:104A400025730A00702D3E726566203D3D203100C1
:104A5000433A5C55736572735CD098D0B2D0B0D0D5
:104A6000BD5C4465736B746F705CD09FD180D0BEA9
:104A7000D0B5D0BAD18220D09CD09F2DD098D098DC
:104A80005C4D502D49495F766572322E305C4D5039
:104A90002D49495F766572322E305C4D6964646CD5
:104AA0006577617265735C54686972645F506172A6
:104AB00074795C4C7749505C7372635C636F7265A8
:104AC0005C697076345C6970342E6300636865637A
:104AD0006B207468617420666972737420706275EB
:104AE000662063616E20686F6C64207374727563F6
:104AF000742069705F686472000000000068934968
:104B0000884200D0704780B586B000229048059258
:104B1000016841F000710160026802F000720592C4
:104B2000002205990592036843F0806303600168E1
:104B300001F080610591059905923221036843F0E7
:104B4000006303600222006800F000600590059891
:104B50008048009101920021029103220B210491CF
:104B60000392694602F01EF886210091022200217C
:104B7000029101920B210322049103926946764827
:104B800002F010F802210191002202924FF46050CD
:104B90000321009003910B22049269466F4802F0B2
:104BA00001F807B000BD3EB50021009101216C4C19
:104BB000664A6160226001A980224A7000230022B7
:104BC00023828DF80430CA708A80A261E261E123F9
:104BD0004FF400028B706161226200F122052046D1
:104BE00002F0D0F818B9687A40F00400687241F613
:104BF00018102218042304F1C801204602F0A5F978
:104C0000042304F5A47204F14801204602F0DAF905
:104C10000620A87061690878E87061694878287191
:104C20006169887868716169C878A8716169087973
:104C3000E87161694879287240F2DC51687A29800C
:104C400040F00A006872204602F0E8FA00F00CF822
:104C5000009840F00B0000900B21009A204602F0D3
:104C6000A6FA00F001F837BD6A460B21204602F093
:104C700062BA2DE9F84F3A4CE76ABE684FF0000976
:104C80000D46C84639E00BF2F45B09F2F459B968F5
:104C9000A6F2F450ABEB060BA9EB06098244002602
:104CA000881906EB0A0840F2F45398451DD9696843
:104CB0009A1B5944FFF7E4FCFF6838680028E2D5E6
:104CC0006FF0070004E04946204602F0BFF90020DB
:104CD000216841F2040211440B699A0603D520238E
:104CE0000B6100220A60BDE8F28F0E4669685246E9
:104CF0005944FFF7C5FC2D68D144002DE3D0386836
:104D00000028DDD4B5F80AA031464FF0000B464626
:104D1000C6E7000010B5040009D100BF0FF28803F8
:104D20000FF2740112A040F22122FFF7C5F904F13D
:104D30002C0073217422017042700A480A49606194
:104D4000A1612046FFF72FFF002010BD0080024028
:104D500030380240000802400000024000040240D7
:104D6000B401002077880008734C000802F058BB9B
:104D7000417373657274696F6E20222573222066F9
:104D800061696C6564206174206C696E65202564BE
:104D900020696E2025730A006E6574696620213DC6
:104DA000204E554C4C000000433A5C5573657273BD
:104DB0005CD098D0B2D0B0D0BD5C4465736B746FDA
:104DC000705CD09FD180D0BED0B5D0BAD18220D077
:104DD0009CD09F2DD098D0985C4D502D49495F763E
:104DE0006572322E305C4D502D49495F76657232C6
:104DF0002E305C5372635C65746865726E657469AD
:104E0000662E63002DE9F04F0FF2A41CA1B0DCE97F
:104E10000089CDE900892A9DDFF8109C04910024C7
:104E20008DF843500D944FF0FF38824616461F46CA
:104E30000FE0B3462C461BF8011B0498D04700280E
:104E4000049000F0A2800D98401C641E0D90F2D1D9
:104E500076193078252808D1002100220791089280
:104E600009910A920B910C920DE06A464146304638
:104E700002F00EFB050001D10D98A1E0D9D5012566
:104E8000E6E741F0010116F8010F2028F9D02328A8
:104E90000CD02B2804D02D2805D0302809D076E05E
:104EA00041F00201EFE741F00401ECE741F00801B5
:104EB000E9E741F01001E6E70F9209E00F98484555
:104EC00005DA00EB800402EB4402303A0F92761CC4
:104ED0003278A2F130000A28F0D330782E2818BF9B
:104EE000CDF8388022D116F8010F2A2807D138686A
:104EF0003860761C50F8042B38600E9216E02D288E
:104F00000CBF761C002000220E920AE040B90E9AD7
:104F10004A4505DA02EB820403EB4403303B0E936F
:104F2000761C3378A3F130020A2AEFD3ADF8401093
:104F300021A0317802F0B6FA08B116F8010B8DF80D
:104F400042009DF84200682804D1307868280AD1D0
:104F5000622105E06C2804BF30786C2803D17121F0
:104F60008DF84210761C12A806903A4616F8013BBE
:104F700002A9504600F064F838B912AA02A95046B6
:104F800000F0CAF900287FF564AF404618E02A28EF
:104F900092D13A683A6052F8040B3A6000280F90B8
:104FA00003D540420F9041F00401761C95E70000C4
:104FB0000000000000000000686A6C747A4C000079
:104FC00021B0BDE8F08F622820D0682811D06A286F
:104FD00003D06C2827D0712825D10868C01D20F087
:104FE00007000860D0E90023083008601946104621
:104FF0007047002A0A680A60106803D0121D0A6010
:1050000000B217E0121D0A6080B217E0002A0A6899
:105010000A60106803D0121D0A6040B20AE0121D37
:105020000A60C0B20AE0002A0A680A60106803D069
:10503000121D0A60C1177047121D0A6000217047D7
:105040007CB50D4611461C462E69B4F1250200F0D0
:1050500051811C3A00F08680121F022A40F28280A1
:105060000E3A00F00B81521F5AD0093A7AD0921EA4
:1050700016D0521E35D0521E022A73D9121F30D0BC
:10508000521F00F09A80521E4AD0521E00F0E48057
:10509000D21E00F00181921E42D0D21E40D02FE1DC
:1050A00095F83A406C2C09D06869421C6A610A681C
:1050B0000A6052F8043B0A6033542BE10A680A6024
:1050C00052F8043B0A600093002201924FF0FF3334
:1050D0002B636A46294600F09AF9002840F11A81AC
:1050E00005E195F83A000122FFF76DFFC5E90001DF
:1050F0000023994204DA6869411C69612D220DE0A0
:10510000288F810704D56869411C69612B2205E05D
:10511000C00722D56869411C6961202232541CE015
:1051200095F83A000022FFF74EFFC5E9000195F817
:105130003800010711D5D5E900230020834208BFBC
:1051400082420AD044F02000782806D168693021D4
:105150003154401C421C6A61345421466869304411
:10516000E86087E00868C01D20F007000860D0E90B
:10517000002308300860C5E90023D5E90001C80F05
:1051800004D06869411C69612D220DE0288F8107D8
:1051900004D56869411C69612B2205E0C00704D56C
:1051A0006869411C69612022325468693044E860B2
:1051B0002146284600F03AFAACE005F13A02507870
:1051C00020B14FF0FF340FF6343074E010786228CD
:1051D00008D0682824D06A2812D06C282ED07128D4
:1051E0000ED02BE00A680A6052F8040B0A6020B95E
:1051F0004FF0FF340FF61C305DE0E96A017089E082
:105200000A680A6052F8040B0A6020B94FF0FF34B4
:105210000FF600304FE0EA6AD317C0E9002379E0C7
:105220000A680A6052F8040B0A6020B94FF0FF3494
:105230000FF6E0203FE0E96A01806BE00A680A604F
:1052400052F8040B0A6020B94FF0FF340FF6C42067
:1052500031E0E96A01605DE00A680A6052F8040B17
:105260000A60002120F0000221F0FF33C5E900238D
:10527000EE607821284600F02DF94BE06C2285F88D
:105280003A200B680B6053F8042B0B6052BB4FF0B5
:10529000FF340FF6B4200EE095F83A206C2AF0D0D7
:1052A0000868086050F8044B0860EC603CB94FF0A7
:1052B000FF340FF6782002F001F9201A76BD2E6B2C
:1052C000002E04D5204602F019F9044608E03246C3
:1052D0000021204602F02EF9002814BF041B34469A
:1052E000AC6117E0294600F092F8002812D54FF083
:1052F000FF3076BD6869411C69612522325409E09E
:105300006969481C686125227254210002D0431C3F
:105310006B613454002076BD2DE9F0410E46054600
:105320009046726B7069316AB46A121AB069521A87
:10533000716A121AF069521A121A96F83800141B80
:1053400041070DD4002C0BDD2746B0682021A8476B
:105350000028B06057D0F06A401C7F1EF062F4D184
:10536000736942463146284600F0B0FC00284AD115
:10537000376A002F0ADDB0683021A8470028B060E6
:1053800041D0F06A401C7F1EF062F4D1B369F2682C
:105390003146284600F09AFCA8BB776A002F09DD49
:1053A000B0683021A847B06068B3F06A401C7F1E27
:1053B000F062F5D1F068B169F369421831462846C8
:1053C00000F084FCF8B9B76A002F09DDB06830211D
:1053D000A847B060B8B1F06A401C7F1EF062F5D1FA
:1053E00096F8380041070BD5002C09DDB068202164
:1053F000A847B06038B1F06A401C641EF062F5D175
:105400000020BDE8F0814FF0FF30BDE8F0812DE9CC
:10541000F8470D46A3B02F6B002F0646904648BFB5
:105420006FF000470FF63C1402F0B0F8D4E9002307
:10543000696B4018CDE90123812828BF4FF0FF3068
:1054400042D20024002F33DDD8F8001001AA6846AC
:1054500002F020F88146B9F1000F38D4D8F80000E6
:1054600010B9B9F1010932D44F4521DB68694844CC
:1054700081280AD30021696303AA29463046FFF731
:105480004BFF040014D40020686103ABD5F814A0CE
:105490004A46694603EB0A00FFF7F2F8CA44C5F82A
:1054A00014A058F8040B002818BFA7EB0907C9D1AE
:1054B0004CB903AA29463046FFF72EFF044614B91B
:1054C000002068616863204624B0BDE8F0874FF093
:1054D000FF34F8E72DE9FC4707468C463E69BCF1EE
:1054E0006F0F08BF082405D04CF02000782814BFA7
:1054F0000A2410243C25D7E90023BCF1640F18BF0F
:10550000BCF1690F9046994606D100218B4203DA1F
:10551000D8F1000869EB49094FF0000AD14508BFEE
:10552000D0451FD1386BE8B9082C4BD197F838001B
:10553000010747D530203B2586F83B0042E0002894
:105540000ED597F8380000F01400102808D17B6BB6
:105550007969386A5B1A1B1A9A1A002AC8BF3A621C
:10556000BDE8F3878DF800C0404649462246E31760
:1055700002F012F83032D0B26D1E3A28019504DBE9
:105580009DF80000A0F151018A1872554046494625
:105590002246E31702F000F889468046D14508BF4D
:1055A000D04503D0F86871198842DDD3082C09D1A1
:1055B00097F83800010705D5705D302802D06D1EC0
:1055C00030207055C5F13C02BA617119F960386B31
:1055D0008242B4DA821A3A624FF6EF70398F014094
:1055E0003987BDE8F3872DE9D04306460F461446B8
:1055F0004FF00008DFF8389412E0E00707D5424684
:105600004B463046394602F0DFF806460F46404624
:10561000494642464B4602F0D7F864108046894618
:10562000002CEAD130463946BDE8D0832DE9F34F4E
:10563000054641F020048DB0D5E90089612C02AE09
:1056400009D0286B002848BF062003D408BF672C68
:1056500001D101202863D5E9002358004015401CE2
:105660000ED119030CD00320A8619DF838106139C0
:105670001A2902D20FF2F46111E00FF2F4610EE088
:1056800059004915491C0FD118030DD10320A861F9
:105690009DF8381061391A2914D30FF2DC61E868DB
:1056A0000322FEF7EDFFD3E1194621F00043B3F5E5
:1056B000801F10460DD20027BB4208BFBA42019797
:1056C00003D111E00FF2AC61E9E701AA02F04EF953
:1056D0000AE0DFF8607307EB1352DFF85C330192E6
:1056E0001940DFF858331943C5E90001612C0ED188
:1056F000E86830210170821CEA609DF83810612949
:105700000CBF7821582141706869801C6861D5E917
:1057100000AB2BF0004300202AF00002834204BFBC
:105720008242002300F05B81612C40F0AA80286B4C
:10573000002847BF21210091401C0090009F7F1C42
:10574000404649460022002302F048F9D946019913
:105750008DF8082038BF89F00049091F002FD04676
:1057600001910DF1090040F34981B349DFF8D0B24E
:105770000C910646404649460022002302F046F9B5
:1057800080F03B814800400D00F11C0211D0002A3E
:105790000FDD40F2FF70824205DB09F0004040EA75
:1057A0000B01002013E00C98014041EA02514046F1
:1057B0000DE029F00043002028F00002834208BFDA
:1057C00082420FBF40461C22404602F037F9804615
:1057D000894602F0D1F9FF1F002F044609DD02F0CF
:1057E000E9F902460B464046494602F0F5F9804683
:1057F0008946F01D072104E004F00F0200F8012D96
:105800002411002C01DD491EF6D5491E5CBF002283
:1058100000F8012DF9D5ECE00020194602AA0A444F
:1058200000E05B1E12F80149491E8442F9D00F289E
:1058300004D10DF10900425C521C4254002904D5E8
:105840000198001D02AE5B1C0190591E12D49DF8F8
:1058500038007218A0F13A07147804F130085FFAA2
:1058600088F43A2CA8BFB844491E02F80189F3D540
:105870008DF83800286B002840F1B080591E29634C
:10588000ACE0404649460022002302F0A7F8019907
:1058900038BF89F0004947F297504143694A91FB6C
:1058A000F2F20192D2F1070204DD40464946FFF7C9
:1058B0009AFE0AE0524200206349FFF794FE024636
:1058C0000B464046494602F0F9F98046662C286BA3
:1058D000DFF878B106BF019F0A3706273F18142F5B
:1058E000C8BF142730208DF8080089460DF1090043
:1058F00000E03046002F34DD06464046494602F0BF
:1059000001FB01460A4606F1080304200A26B2FB01
:10591000F6F606EB860EA2EB4E02303203F8012CAF
:105920000A22B6FBF2F202EB820EA6EB4E063036EE
:10593000401E03F8026DE9D1083F002F03F108066D
:10594000D7DD084602F0F2FA02460B4640464946C9
:1059500002F042F900225B4601F036FF804689469C
:10596000CBE70DF10901401A0DF1090604E0019998
:10597000491E401E0191761C31783029F7D0662CE3
:1059800002D10199491C03E0652C0CBF01210021C3
:105990002B6BCB189842B8BF431E002B1ED48342FA
:1059A00004DAF05C3528A8BF392000DA3020194627
:1059B000721E02EB010800E05B1E18F80199491EF7
:1059C0008145F9D0392802D1705C401C70540029FF
:1059D00004D50198401C16465B1C0190019800B24A
:1059E00000901BB29DF838103246284600F034F87B
:1059F0002EE0C61D002F3FF7BDAE30460DF1090168
:105A0000401A009903468842C8BF0B46002B0DF18F
:105A100009063FF52FAF8342BFF6FEAE0DF1090038
:105A2000C15C07297FF7F8AE0F20F6E6CBCCCC0C93
:105A30000000244002FCFFFFFFFF0F800000E03F5A
:105A40000000F07FA08601000000F03F84D797415E
:105A50000FB0BDE8F08F00002DE9F84783B006468F
:105A60008A461746984601F017FDB8F1000F406AC4
:105A7000356B90F8009002DC4FF00108BFA74AF0A8
:105A80002000BDF93040662808BF641C15D0672887
:105A900040F0848014F1040FC0F28680AC4280F2A2
:105AA000838096F83800641C010702D4A845B8BF6B
:105AB000454620B22D1A48BF00250FFA84FAF06837
:105AC000B169BAF1000F25DC4A1C30234354002D84
:105AD00003DC96F83800010703D5F06800F802905F
