:020000040800F2
:10000000C8720020E9CF0008C1CE0008C3CE0008A6
:10001000C5CE0008C7CE0008C9CE00080000000009
:10002000000000000000000000000000CBCE00082F
:10003000CDCE000800000000CFCE0008D1CE0008D1
:1000400021D0000825D0000829D000082DD00008B4
:1000500031D0000835D0000839D000083DD0000864
:1000600041D0000845D0000849D000084DD0000814
:1000700051D0000855D0000859D000085DD00008C4
:1000800061D0000865D0000869D000086DD0000874
:1000900071D0000875D0000879D000087DD0000824
:1000A00081D0000885D0000889D000088DD00008D4
:1000B00091D0000895D0000899D000089DD0000884
:1000C000A1D00008A5D00008A9D00008ADD0000834
:1000D000B1D00008B5D00008B9D00008BDD00008E4
:1000E000C1D00008C5D00008C9D00008CDD0000894
:1000F000D1D00008D5D00008D9D00008E3CE000840
:10010000DDD00008E1D00008E5D00008E9D0000803
:10011000EDD00008E9CE0008F1D00008F5D00008C5
:10012000F9D00008FDD0000801D1000805D1000871
:1001300009D100080DD1000811D1000815D100081F
:1001400019D100081DD1000821D1000825D10008CF
:1001500029D100082DD1000831D1000835D100087F
:1001600039D100083DD1000841D1000845D100082F
:1001700049D100084DD1000851D10008000000000D
:1001800055D1000859D100082DE9F04F054683B03C
:10019000DFF81C6C6868F06169891429C0F2068276
:1001A000DFF8107C3968786901F012FC002840F013
:1001B000FD81387D00F0F000E02800F0F781F06963
:1001C000808901F05BFC000B81001429A4BF288901
:1001D0008842C0F2EB81A1F11400002270823262E9
:1001E0006B898B4206DBB082494209B2284601F096
:1001F00017FF42E0286840B9DFF8BC3B0FF220410E
:10020000DFF8B80BB22202F083FA6FF01301284630
:1002100001F006FF6989748AB1822846641A09B21E
:10022000494209B201F0FCFE28684189A4B2A1420A
:10023000C0F2BC814268326221B2494209B201F087
:10024000EFFE298968890C1B2C8140B1DFF8683BDF
:100250000FF2DC31DFF8640BCF2202F059FA296883
:1002600028890A89904208D0DFF84C3B0FF2CC3144
:10027000DFF8480BD02202F04BFAF069DFF840AB10
:100280000088DFF8388BDFF8309B01F0F7FBF1696D
:1002900008804FF0000B488801F0F0FBF1694880BE
:1002A000486801F0F1FBF16948607062F1698868A3
:1002B00001F0EAFBF1698860B062F069C08901F081
:1002C000DDFBF169C881888901F0D8FB00F03F00AF
:1002D000307400F00300401E80412989C04301EBC7
:1002E000D0703083DAF800400FF27030009001E0F7
:1002F000A346E468002C00F06281207D30B94B46B3
:10030000E2220FF28031404602F002FA207D0A28F4
:1003100006D14B46E3220FF29431404602F0F8F941
:10032000207D012805D100994B46E422404602F089
:10033000EFF9F069218B0288914202BFE18A40887F
:100340008142D5D161683869814202BF21687869EC
:100350008142CDD1E168A14206D14B46EC220FF299
:100360007831404602F0D4F9BBF1000F07D0E068C5
:10037000CBF80C00DAF80010E160CAF80040E06841
:10038000A04206D14B46F4220FF27831404602F0EB
:10039000BFF9002030602989F0693181F0600021C7
:1003A000F1627174F1827560307C010703D5687B5E
:1003B00040F0010068736FF00C05606F00286ED08C
:1003C000204602F0BDFFA84205D0606F00281CBF88
:1003D000308B002863D0608D002840F0DB80204601
:1003E00004F01BF9D6E0E468002C00F0EE80207DDC
:1003F0000A2805D04B46FE225146404602F088F9B5
:10040000F069218B0288914202BF4388E08A9842BA
:10041000E9D161683869814202BF21687869814207
:10042000E1D1317C20464C0700F1C0808C0715D506
:10043000746A416AB4EB010C16D4018DACEB010176
:10044000002911DC308B019200932118B06A07F16A
:10045000100307F1140204F0C7FAA7E0C90703D597
:10046000DFF8602913680362318B002900F09E8059
:10047000817E41F00201817604F032F996E0C88A6B
:100480005C88A04208D108687C69A04218BF002996
:1004900018BF002800F0B7800A46C9689BE03463A3
:1004A000204600F0E9F9A84274D0707C010705D518
:1004B000D4F88C20D2B16FF00D0115E0F28A42B170
:1004C000E36F23B1206921469847A84262D00020FB
:1004D000F082707CC10612D5A07EC10606D4D4F885
:1004E0008C201AB16FF00E012069904721465046CA
:1004F00003F0E6F82146012004F0C4FD4AE0F06A6A
:1005000030B3606F38B14B464FF4D27288A1DFF838
:10051000AC0802F0FDF8A07EF26AC10606D51046CE
:1005200001F082FD204602F017FB33E0D4F8807022
:1005300027B1206900232146B84704E00023214663
:10054000002002F07AFFA84224D008B1F06A606768
:10055000707C810616D5606F20B1417B41F020018F
:1005600041730FE0208DB0F5066F1CBF401C208545
:10057000D4F8807037B12069002300222146B847A3
:10058000A84207D000203063717CC806A4D420465E
:1005900004F0A6F800203063F062706860B101F0EA
:1005A00043FD0020706003B0BDE8F08F284603B023
:1005B000BDE8F04F01F038BD03B0BDE8F08FDFF8C3
:1005C00008080FF2881A04680EE7DFF800B8F3692C
:1005D000DBF80010002200297FF451AF988901F068
:1005E0004DFA4007E2D4F0690188019107F1100348
:1005F0004088318B009007F11402706A4118B06A8C
:1006000004F0F2F9D2E732B1C868D060DBF800201C
:10061000CA60CBF80010084600F0B0F8C6E700004A
:10062000702D3E6E65787420213D204E554C4C0057
:10063000702D3E6C656E203D3D203000702D3E7467
:100640006F745F6C656E203D3D20702D3E6E657849
:10065000742D3E746F745F6C656E00007463705F20
:10066000696E7075743A2061637469766520706391
:10067000622D3E737461746520213D204C495354B2
:10068000454E00007463705F696E7075743A206146
:100690006374697665207063622D3E73746174655E
:1006A00020213D20434C4F53454400007463705F4C
:1006B000696E7075743A2061637469766520706341
:1006C000622D3E737461746520213D2054494D456F
:1006D0002D574149540000007463705F696E707556
:1006E000743A207063622D3E6E65787420213D203F
:1006F00070636220286265666F726520636163685B
:10070000652900007463705F696E7075743A2070BB
:1007100063622D3E6E65787420213D2070636220F7
:100720002861667465722063616368652900000052
:100730007063622D3E726566757365645F64617493
:1007400061203D3D204E554C4C0000007463705FAD
:10075000696E7075743A2054494D452D574149547E
:10076000207063622D3E7374617465203D3D20549A
:10077000494D452D574149540000000070B5DFF840
:1007800030560646287C410782B073D4C20612D583
:10079000E969DFF820060A88019200F11003498810
:1007A000009100F11402686A298B4118A86A04F0CC
:1007B0001BF902B070BD80075CD5707D02F084FE2D
:1007C00004000AD1B369002B54D0306902B0BDE8EF
:1007D00070404FF0FF3200211847DFF8D80541691B
:1007E0002160032200696060F18AE182E869018882
:1007F00021832275686A401C6062E062204602F034
:10080000BCFF6065E0646064A065686A401E2065A6
:1008100030692061A667307A00F00C002072DFF8A2
:10082000A0050168E160046004F0F8FCDFF8A015A1
:1008300001200870204600F029FFE869C089A4F86B
:100840005C00A4F85E00211D608E02F09CFF6086B3
:100850001221204603F03CFE30B1204602B0BDE834
:100860007040002102F0C2B8204602B0BDE87040DE
:1008700003F036BF02B070BD70B5DFF834550446E2
:10088000287C410782B030D5207D022805D1A86A96
:10089000E16C884240F00C820EE0616A6A6A8A422A
:1008A00016D148B9DFF810350FF22C41DFF80C05EE
:1008B00040F2E72201F02CFF687C40F008006874E9
:1008C000A07E00F0FE00A07602B06FF00D0070BDBB
:1008D000511A00F1ED81208D091A002900F3E881F9
:1008E000A07E40F00200A076E2E1800709D5207DDD
:1008F000022818BF032804D0A07E40F00200A07692
:10090000D6E1A07EC10603D4DFF8B80402682262F3
:10091000002084F89600204600F0B8FE207D801E5E
:10092000072800F2C581DFE810F0080097000001F9
:100930000E015B0100018301B201287C00F012016D
:10094000122901BFA96A626C521C914265D1686A82
:100950006164421C6262E262401EE969C9892065E5
:10096000A4F85C1004202075A4F85E10211D608E90
:1009700002F009FF420041F21C139A428CBF154657
:100980001D4660868100A94238BF800003D39A4289
:100990008CBF40001846A4F84800B4F8620048B97B
:1009A000DFF814340FF25031DFF8100440F21A323D
:1009B00001F0AEFEB4F86200E56E411EA4F86210CC
:1009C00075B9A56E4DB9DFF8F0330FF24431DFF899
:1009D000EC0340F2223201F09BFE2868A06601E0A1
:1009E0002968E166284602F006FDE06E00280EBF89
:1009F0004FF0FF30002084F84200D4F88430208685
:100A000033B1206900222146984710F10D0F4FD0D5
:100A1000A07E40F00200A0764AE1C00640F1488185
:100A2000E869DFF890130288019201F11003408811
:100A3000009001F11402686A298B4118A86A03F03A
:100A4000D3FF94F84200062880F2328100212186EB
:100A5000204604F019F82BE1287CC10658D5A86A75
:100A6000616C411A491E44D4E16C411A002940DCF2
:100A700004202075A06FC0B1806958B9DFF8383301
:100A80000FF2A021DFF8340340F2513201F040FEB2
:100A9000A06F50B1A06F83693BB12069002221464D
:100AA000984748B110F10D0F02D0204602F054F8DB
:100AB0006FF00C0002B070BD204600F08BF9E88AA0
:100AC00008B1401EE88241F21C10618E4B00834247
:100AD0008CBF1E4606468A00B24238BF880002D349
:100AE000834288BF4800A4F84800687C810623D46C
:100AF000DEE0E969AF4A0B882C8B019302F1100309
:100B0000498800911432696A091903F06DFFCFE03A
:100B1000800740F1CD80606A696A401E814240F0E2
:100B2000C780204603F0D3FFC2E0204600F052F910
:100B3000687C810640F1BC80A07E40F00200072165
:100B4000A0762175B4E0204600F044F9697C287C49
:100B50008A0600F0100037D578B3A86AE16C8842A5
:100B600004BFA06E002828D1A07E40F00200A0762D
:100B7000204602F064FD92480068A0426CD0002834
:100B800000F09B80C168A14200F09580080000F051
:100B90009480C168A14200F08E80080000F08D8032
:100BA000C168A14200F08780080000F08680C1681B
:100BB000A14218BF0846E2D17DE0A07E40F00200CD
:100BC0000821A076217573E0002871D0A86AE16C35
:100BD000884204BFA06E00286AD10621217567E013
:100BE000204600F0F7F8687C810661D5A07E40F0D1
:100BF0000200A076204602F022FD71480068A04263
:100C00002AD0002859D0C168A14254D0080054D03D
:100C1000C168A1424FD008004FD0C168A1424AD05C
:100C200008004AD0C168A14218BF0846E9D142E095
:100C3000204600F0CFF8287CC10639D5A86AE16CBF
:100C4000884204BFA06E002832D1204602F0F7FC93
:100C50005B480068A04204D159480168CA68026034
:100C60002BE050B3C168A14225D0080025D0C1684F
:100C7000A14220D0080020D0C168A1421BD00800AA
:100C80001BD0C168A14218BF0846EAD113E0204634
:100C900000F0A0F8287CC1060AD5A86AE16C884259
:100CA00004BFA06E002803D1687C40F01000687477
:100CB000002002B070BDE168C1600020444AE060DD
:100CC000012111700A2020753F480168E16004602D
:100CD00004F0A4FAECE700007463705F696E70754D
:100CE000743A207063622D3E737461746520213DF7
:100CF00020434C4F534544007063622D3E736E6435
:100D00005F71756575656C656E203E203000000072
:100D10006E6F207365676D656E7420746F206672E8
:100D2000656500007063622D3E6C697374656E6565
:100D3000722D3E61636365707420213D204E554CD9
:100D40004C00000070B505460C46E968888900F043
:100D500095FEC00715D5204602F03CFB00242C6010
:100D600070BD808900F08AFEC00706D5012000F022
:100D700085FEE9688A89104388812046246802F04C
:100D80003AFB9CB1E0680A492A89496A4368268986
:100D90008A18D31A9B1BE4D54368D21A002A05DDB2
:100DA000591A298189B2686801F06FF82C6070BD0A
:100DB000006E0020586E0020F0170008C8170008C9
:100DC0002001002014010020240100201C0100202B
:100DD00010010020F0B5074681B0387D042809DAFB
:100DE0000FF60C230FF684210FF6DC104FF481620E
:100DF00001F08EFCDFF8C869307CC10640F17A81D1
:100E0000796DB7F85C40706A3D6DB26A0B192D1AA6
:100E100008D401D18D1A05D491421FD1F169CD8931
:100E2000AC421BD2F169B7F85E50C98938650C46EF
:100E3000AC4238BF2C4697F89500A7F85C10A7F88D
:100E40005E407A6531B948B9012187F8940087F886
:100E5000951003E010B1002087F89500796C501AC6
:100E6000002830DC308B002801BF786DB7F85C407B
:100E700004199C4223D1B7F9300000281FD49142B5
:100E80001DD197F84300411CCAB2904238BF87F881
:100E9000431097F8430004280ADBB7F84800798E1E
:100EA00009188AB2904280F0DF80A7F84810DBE092
:100EB000032840F0D980384603F034FED4E0002007
:100EC00087F84300D0E0401E00F19280F86C101AC1
:100ED000002800F38D80B87E410706D500F0FB00A6
:100EE000B876B7F84A00A7F84800002187F8421002
:100EF0007A64B7F93C00B7F93E1001EBE00100203D
:100F000087F84300A7F84010387D04284ADBB7F87B
:100F10004800B7F84A108842798E06D209188AB27A
:100F200090423FD2A7F848103CE0494391FBF0F1D2
:100F30000918814238BF0146A7F8481032E02168FD
:100F4000F966606801F0D9F8B7F86210814209D2F9
:100F50000FF69C030FF630110FF66C0040F29E4224
:100F600001F0D6FB606801F0C8F8B7F86210081A03
:100F7000A7F862002189F08A0818F082204602F062
:100F80003AFAB7F8620068B1F86E58B9B86E20BB8B
:100F90000FF65C030FF618110FF62C0040F2A74273
:100FA00001F0B6FBF86EC0B1C168486800F06CFD96
:100FB0000546F86EC168888900F060FDFC6EB26A73
:100FC000218900F00300401E8041C043691801EBF5
:100FD000D070801A0028B2DD2CB94FF0FF3038866F
:100FE0000020F87640E0002038860020F8763BE0CC
:100FF000384603F012FB37E02068B86608B9A7F856
:101000006400606801F079F8B7F86210814209D293
:101010000FF2DC730FF670010FF2AC7040F2D542A4
:1010200001F076FB606801F068F8B7F86210081A02
:10103000A7F862002189F08A0818F082204602F0A1
:10104000DAF9B7F8620078B1F86E002804BFB86E1C
:10105000002809D10FF298730FF654010FF268704F
:1010600040F2DD4201F054FBB86ED0B1C16848686F
:1010700000F00AFD0546B86EC168888900F0FEFCE4
:10108000BC6E228900F00300411EB06A8941451BF5
:10109000C943AD1AB5EBD17503D4F96C401A0028D9
:1010A000AADDB7F86010F08A4118786BA7F86010D5
:1010B00000B3BA6BB16A521A1CD5DFF8082713685F
:1010C000B7F93C10B7F93E20181A00B2A0EBE100C6
:1010D00004B24118002C48BF4042B9878018A0EBE9
:1010E000A200F8870904C91401FA80F00021A7F8CA
:1010F00040007963308B002800F0B382397D0729E6
:1011000080F2AF82716A7A6A551A6B1E70D4281AFF
:10111000401C6DDC74684CB90FF2D4630FF2B071EF
:101120000FF2A46040F23C5201F0F2FA47F6FF7071
:10113000854209DB0FF2B8630FF2A4710FF28860E9
:1011400040F23D5201F0E4FA70684189A94236DA72
:101150000089A84209DA0FF298630FF294710FF236
:10116000686040F23F5201F0D3FA706800896189EB
:10117000401BA94218DA0021208162896181AD1AE1
:1011800024686189A9420FDA6D1A002120816181EA
:1011900024686189A94207DA6D1A002120816181E2
:1011A00024686189A942E6DB6D4229B2204600F03D
:1011B00037FF98B10FF2386340F24C5208E06D42AD
:1011C00029B200F02DFF48B10FF2246340F25152D2
:1011D0000FF22C710FF2F05001F09AFA796A32890D
:1011E000706A7162521A8218F0683281416005E0BB
:1011F000891A03D5B87E40F00200B876796A726A1F
:10120000531A00F12882388D1B1A5B1C00F32382CD
:10121000914240F05881F068808900F02FFC00F086
:101220000300401E80413189C04301EBD070308300
:1012300080B23A8D824242D2F068808900F01EFC72
:10124000C0070ED5F168888900F018FC00F03E0058
:1012500000F014FCF26893894CF2FF010B40184334
:101260009081388DF1683081888900F007FC800713
:1012700002D53189481E30813189706800F005FE41
:10128000F068808900F0FAFB00F00300401E804106
:101290003189726AC04301EBD070308312FA80F05A
:1012A000796A3A8D8A18904209D00FF244530FF2AE
:1012B00064610FF2145040F27F5201F029FA386F46
:1012C000002870D0F068808900F0D8FBC1070BD5EA
:1012D000386F002867D0386F0168396702F08BF8E3
:1012E000386F0028F7D15EE03C6F20E0808900F085
:1012F000C5FBC00717D5F168888900F0BFFB8007E0
:1013000011D4012000F0BAFBF1688A89104388816A
:1013100000F0B4FB00F00300401E80413189C0435F
:1013200001EBD07030832046246802F064F8CCB31F
:10133000E068716A328B436825898A18D31A5B1B6F
:10134000D4D54368D21A002A2CDDF068591A3181AD
:10135000808900F093FB800702D53189481E3081D7
:101360003189706800F091FDF068808900F086FB9B
:1013700000F00300401E80413189C04301EBD07072
:101380003083E2685168726A12FA80F0884209D0AC
:101390000FF25C430FF2B4510FF22C4040F2AF5207
:1013A00001F0B6F93C67308B716A3A8D09188242B8
:1013B000796209D20FF238430FF2CC510FF2084094
:1013C00040F2B95201F0A4F9398D308B091A3985F0
:1013D000384601F097FC7168088910B10020F1626D
:1013E0007060F068808900F049FBC00703D5717C0C
:1013F00041F0200171743C6F002C00F04081E168E5
:101400004868796A884240F03A817062E068808971
:1014100000F034FB00F00300401E80412289796A0D
:10142000C04302EBD07041187962E168888900F00E
:1014300025FB00F00300401E80412289398DC04306
:1014400002EBD070814209D20FF2A4330FF258514F
:101450000FF2743040F2DE5201F05AF9E0688089F0
:1014600000F00CFB00F00300401E398D2289804102
:10147000C043891AA1EBD0703885384601F042FC90
:101480006168088938B1F06A00280CBFF16200F089
:1014900058FE00206060E068808900F0EFFAC00725
:1014A00008D5717C41F020017174387D042804BF97
:1014B0000721397520683867204601F09CFF9AE7BC
:1014C00040F00100D8E0384603F0A7F83C6F2CB993
:1014D000304601F09EFF386701B0F0BD716A00250B
:1014E000E268506881420BD0DDB9081A22D5304637
:1014F00001F08FFF002800F0C080386721463CE0F3
:1015000020893189884280F0B880304601F081FF1F
:10151000002800F0B280002D14BF286038672146F3
:101520002BE0EB685868081A401E03D45068081A6C
:10153000401C0ADD206818B95368CB1A002B21DC47
:1015400025460400CCD101B0F0BD304601F061FF6A
:10155000070000F09280E8682B894268716AD2180F
:10156000521A002A06DD42686868891A298189B200
:1015700000F08BFC2F602146384601B0BDE8F040FA
:10158000FFF7E0BB908900F079FAC00775D43046C8
:1015900001F03FFF002820606FD0E0682389426897
:1015A000716AD218521A002A06DD42686068891AE8
:1015B000218189B200F069FC308B726A796A121855
:1015C000388D521A121A002A57DD2168C86880899E
:1015D00000F054FAC00710D52168C868808900F06F
:1015E0004DFA00F03E0000F049FA2168CA6893897C
:1015F0004CF2FF010B40184390817A6A388D716A72
:1016000082182068511A018189B2406800F03DFCBF
:101610002068C168888900F031FA21680A89716AF6
:1016200000F00300401E8041C04302EBD0703083C5
:1016300011FA80F07A6A398D511888421DD001B0B4
:10164000BDE8F0400FF2A8130FF2C8215EA040F2EF
:101650007B6201F05DB8384601B0BDE8F04002F0B1
:10166000DCBF706A796A411A03D4388D091A491CA3
:1016700003DDB87E40F00200B87601B0F0BDB87E60
:10168000C1077FF51DAF00F0FE00F3E74C4B5A8A0F
:10169000002A014600D170472DE9F046DD69B3F814
:1016A0001490186A4FF0000E4FF4067A40F2192C8D
:1016B0002CE0DC6904F114061FFA8EF70EF1010E1E
:1016C000F45D042C73D11FFA8EF4A61CB2426EDBBB
:1016D00000284ED01FFA8EF64E454AD3AEEB0904D1
:1016E000E4B20EF1010E045D1FFA8EF64E4549D3A9
:1016F000AEEB0906F6B20EF1010E865D46EA04264F
:10170000664500DA06B956464E8600BF1FFA8EF4CB
:1017100094424CD240B14C4506D3AEEB0904E4B23E
:101720000EF1010E045D07E0DC6904F114061FFAF6
:101730008EF70EF1010EF45DCCB3022C0CD0E5D384
:1017400040B31FFA8EF44C4524D3AEEB0904E4B247
:101750000EF1010E045D25E00028AAD01FFA8EF4D8
:101760004C45A6D3AEEB0904E4B20EF1010E045DC4
:10177000A7E7DE6906F1140700283C5D0EF1010EB3
:101780007FF4B2AF05F114061FFA8EF70EF1010EC9
:10179000F65DB3E7DC6904F114061FFA8EF70EF16B
:1017A000010EF45D022CA4BFA41EA644AEDABDE86F
:1017B000F0860348417C41F01001417470470000FD
:1017C000006E002014010020417373657274696F0C
:1017D0006E2022257322206661696C656420617425
:1017E000206C696E6520256420696E2025730A00CF
:1017F000433A5C55736572735CD098D0B2D0B0D068
:10180000BD5C4465736B746F705CD09FD180D0BE3B
:10181000D0B5D0BAD18220D09CD09F2DD098D0986E
:101820005C4D502D49495F766572322E305C4D50CB
:101830002D49495F766572322E305C4D6964646C67
:101840006577617265735C54686972645F50617238
:1018500074795C4C7749505C7372635C636F72653A
:101860005C7463705F696E2E630000007463705F68
:10187000726563656976653A2077726F6E6720736B
:1018800074617465000000007063622D3E736E64C5
:101890005F71756575656C656E203E3D2070627583
:1018A000665F636C656E286E6578742D3E702900E6
:1018B0007463705F726563656976653A2076616C02
:1018C0006964207175657565206C656E6774680064
:1018D000696E7365672E7020213D204E554C4C007B
:1018E000696E73616E65206F6666736574210000B2
:1018F0007062756620746F6F2073686F7274210058
:10190000706275665F686561646572206661696CA6
:10191000656400007463705F726563656976653A3B
:10192000207365676D656E74206E6F7420747269C4
:101930006D6D656420636F72726563746C79207479
:101940006F207263765F776E640A00007463705F65
:10195000726563656976653A207365676D656E7457
:10196000206E6F74207472696D6D656420636F7290
:10197000726563746C7920746F206F6F736571206A
:1019800071756575650A00007463705F72656365E3
:101990006976653A207463706C656E203E207263D0
:1019A000765F776E640A00007463705F72656365CA
:1019B0006976653A206F6F736571207463706C652A
:1019C0006E203E207263765F776E640A000000002E
:1019D000C24318BF002810D091F82B2093070ED5D2
:1019E0004A6890420BD0896801EA00030A4093429A
:1019F00002BFC9430840884201D10120704700203E
:101A00007047F0B40246106895681318506803EBED
:101A10005004C0071DD54D441BE013F8017B05F8A9
:101A2000017B491EF9D1A0B1B60813F8011B06F0DD
:101A30000306032E08BF13F8016B01EB0621494290
:101A4000801C294405D011F8016B05F8016B401E7C
:101A5000F9D1A3420ED013F8016B16F0030104BFB5
:101A600013F8011BC91C30090F28DAD113F8010B38
:101A70000F30D6E7F0BC02F10C0070470146000AB7
:101A800040EA012080B270470146080200F47F005E
:101A90000A0A40EA016002F47F42104340EA116002
:101AA000704730B4002513E050F8042BD30744BF2F
:101AB000A9F101039A18091F042942F8045BFAD21C
:101AC00013468C0744BF15809B1CC90748BF1D7077
:101AD00050F8041B0029E7D130BC704710B59B4972
:101AE0009B4A002008701468ACB1206F70B9E4689C
:101AF0008CB1206F50B9E4686CB1206F30B9E468E4
:101B00004CB1206F002808BFE468EDD0206F01F0D1
:101B100061FC0021216710BD2DE9F04F042881B040
:101B20000F46144620D8DFE800F003191B1D1D00E6
:101B30003625032C00F2FC80DFE814F0B500E90044
:101B4000E9000400082003F06DFA060019D17F496E
:101B50000120087001B00020BDE8F08F2225E8E7E1
:101B60000E25E6E70025E4E70FF6480379490FF66E
:101B7000BC004FF48B7200F0CBFD002001B0BDE83B
:101B8000F08F0320307300213160EC1C711901F1DA
:101B90001000C01CA4088008A4008000C4F51474C0
:101BA0007060A742378138BF3D4605D3ED1C4FF624
:101BB000FC700540C5F5147575817068728906F56D
:101BC00018710244914208D20FF2E8736FA10FF628
:101BD0005C004FF4987200F09BFD44B90FF2D4738F
:101BE0005DA10FF648004FF4997200F091FD0121BC
:101BF000F18106F5187170890FF290180FF62C0913
:101C00000FF2B07A009135463F1A4FF6FF7B39E06C
:101C1000032000212073617321605F452C6007DB86
:101C20004FEA0A034FF4A67265A1484600F070FD22
:101C3000B8B2B0F5147F27812CBF4FF4147038462A
:101C4000608104F110006060217911F0030F07D06A
:101C50004FEA0A034FF4A9725EA1484600F058FD0E
:101C60007168728900980A44904206D2534640F245
:101C700055124146484600F04BFD61890120E08144
:101C80007F1A2546012F3ADB082003F0CBF9040028
:101C9000BED12E4901200870304600F0C5F9002061
:101CA00001B0BDE8F08F05F113004FF6FC72FB1C8C
:101CB000104013401818FC1C81B2A408B1EB840F2B
:101CC0002AD380B203F050FD060025D070191030E1
:101CD000C01C8008800070603781778100213160EE
:101CE0003173307910F0030F09D00FF2C8630FF28F
:101CF00098610FF2387040F2771200F009FD012070
:101D0000F08100217173304601B0BDE8F08F0720EB
:101D100003F088F9060003D1002001B0BDE8F08F80
:101D20000020706037817781002131603473E6E7ED
:101D30000FF2806333A10FF2F4604FF4C67200F02B
:101D4000E7FC002001B0BDE8F08F0000C76A00206A
:101D50002001002054240008504255465F504F4F48
:101D60004C5F42554653495A45206D757374206245
:101D70006520626967676572207468616E204D45F1
:101D80004D5F414C49474E4D454E54006368656375
:101D90006B20702D3E7061796C6F6164202B207018
:101DA0002D3E6C656E20646F6573206E6F74206FBE
:101DB000766572666C6F7720706275660000000051
:101DC00072656D5F6C656E203C206D61785F75316A
:101DD000365F7400706275665F616C6C6F633A2089
:101DE0007062756620712D3E7061796C6F61642040
:101DF00070726F7065726C7920616C69676E656472
:101E000000000000706275665F616C6C6F633A2061
:101E10006572726F6E656F757320747970650000FE
:101E200030B50446042C81B0184612D8DFE804F01F
:101E3000030B0D0F0F003824059B6518AB4215D21C
:101E4000002001B030BD2424F6E71024F4E700247C
:101E5000F2E70FF260530FF218610FF2D05040F228
:101E6000C51200F055FC002001B030BD049B0025D8
:101E7000056003B1234443600273022301224373CC
:101E800001814181C28101B030BD2DE9F04F0400D4
:101E900081B00F4609D10FF21C530FF2F8510FF227
:101EA0008C5040F2F31200F033FC207B032818BF63
:101EB00001280DD0002818BF022809D00FF2F443E2
:101EC0000FF2E8510FF2645040F2F71200F020FCDC
:101ED0002589AF4247D27D1B0FF2EC5A0FF24C5BC3
:101EE0000FF2D04640F20B294FF6FF7816E03F1A6A
:101EF0004545BFB205DB33464A465146584600F0D9
:101F000007FC20892818208124683CB9334640F218
:101F10000F220FF2C851584600F0FAFB6089B84210
:101F2000E5DB207BB0B96089874213D0617B8807ED
:101F300010D46168091B791889B2204603F09CFB14
:101F4000040007D1334640F21D220FF2A851584633
:101F500000F0DEFB678160892081206808B100F015
:101F600063F80020206001B0BDE8F08F70B558B96B
:101F70000FF240430FF298510FF2B04040F23F226F
:101F800000F0C6FB002070BD0B003BD00C0010D54C
:101F900065424389AEB2B3420CD20FF218430FF23E
:101FA0007C510FF2884040F2472200F0B1FB012043
:101FB00070BD8DB2037B4668002B18BF032B09D17F
:101FC000644200F1100332199A42426014D2466012
:101FD000012070BD022B18BF012B15D1002C05D597
:101FE0004289ADB2AA4204D2012070BDFCDD002AB4
:101FF000FAD0644232194260428903898A18C918AA
:1020000042810181002070BD0FF2A8330FF22C51E4
:102010000FF2184040F2772200F07AFB012070BDE9
:102020000022A3E70122A1E72DE9F04F050081B0CE
:102030000DD10FF280330FF2D8410FF2F03040F2A1
:10204000D22200F065FB002001B0BDE8F08F287BB4
:10205000002818BF01280DD0022818BF032809D076
:102060000FF250330FF2E4410FF2C03040F2DE22A3
:1020700000F04EFB002740F2F9260FF2E84B0FF27A
:10208000AC390FF2303A40F2EB28E88928B95346D0
:1020900042465946484600F03BFBE889401EE8812D
:1020A00080B230BB697B2C68287B8A070CD52869F5
:1020B00030B9534632460FF2C441484600F028FB7F
:1020C00029692846884711E0032802D129460820BB
:1020D00006E0012818BF022805D129465FF0070055
:1020E00002F0D0FF02E0284603F084FA7F1C2500AE
:1020F000CBD1F8B201B0BDE8F08F0146002069B144
:102100000968401C51B10968401C39B10968401C7C
:10211000002903D00968401C0029F1D180B2704722
:1021200070B1C189491CC18189B249B90FF28423B8
:102130000FF26C410FF2F42040F2393200F0E8BAAD
:10214000704730B504000D4618BF002D81B00CD18A
:1021500001B0BDE830400FF25C230FF258410FF29E
:10216000CC2040F24D3200F0D3BA2168E1B1208991
:1021700029890818208124682068A8B121892A8922
:10218000511821810446206870B121892A8951188B
:1021900021810446206838B121892A89511821817A
:1021A000044620680028E2D120896189884209D04C
:1021B0000FF200230FF234410FF2702040F255323B
:1021C00000F0A6FA206848B10FF2E8130FF24C4174
:1021D0000FF2582040F2563200F09AFA21892889ED
:1021E00041182181256001B030BD2DE9F04105463F
:1021F000002600270C46002D18BF002C03D028898C
:10220000218988426DD20FF2AC130FF2204140F2C7
:10221000BD324BE060686B68C1191FFA88F29819EB
:1022200003F066FC46446889B6B24744B042BFB288
:1022300009DA0FF280130FF224410FF2F01040F28E
:10224000CD3200F065FA6089B84209DA0FF2641302
:102250000FF220410FF2D41040F2CE3200F058FAC3
:10226000608987426889A4BF00272468864202BF2C
:1022700000262D68002D11D02CB16089218988425B
:1022800001D12068D0B92DB168892989884201D14E
:10229000286808BB2CBB0020BDE8F081002CFAD0D8
:1022A0000FF210130FF2E8314FF476720FF27C1038
:1022B00000F02EFA6FF00F00BDE8F0810FF2F4038A
:1022C00040F2DE320FF2D8310FF2601000F020FA47
:1022D0006FF00500BDE8F0810FF2D80340F2E33261
:1022E000F0E763896889811BDA1B9142ACBFA3EBDD
:1022F0000708A0EB06088DE72DE9F04381B00646FC
:1023000089461746002436B90FF2A8030FF2BC31F4
:1023100040F2FE3208E0B9F1000F0DD10FF2940344
:102320000FF2C83140F2FF320FF2001000F0F0F966
:10233000002001B0BDE8F083A04620E0758998B286
:1023400048B1A84207D336685B1B002EF6D1A0B275
:1023500001B0BDE8F083ED1AADB2B8B29BB2A842AD
:102360007068B8BFBDB2C1181FFA88F02A46484449
:1023700003F0BEFB36682C19A8447F1B0023B8B2BB
:102380000028E4D0E1E70000706275665F616C6C64
:102390006F633A20706275662D3E7061796C6F6173
:1023A000642070726F7065726C7920616C69676E01
:1023B00065640000433A5C55736572735CD098D0D5
:1023C000B2D0B0D0BD5C4465736B746F705CD09F4D
:1023D000D180D0BED0B5D0BAD18220D09CD09F2D94
:1023E000D098D0985C4D502D49495F766572322E59
:1023F000305C4D502D49495F766572322E305C4D10
:102400006964646C6577617265735C546869726451
:102410005F50617274795C4C7749505C7372635C95
:10242000636F72655C706275662E630041737365DD
:102430007274696F6E2022257322206661696C6553
:1024400064206174206C696E6520256420696E20AB
:1024500025730A00706275665F616C6C6F633A2069
:102460006261642070627566206C6179657200003B
:10247000706275665F616C6C6F6365645F637573D2
:10248000746F6D3A206261642070627566206C61C1
:1024900079657200706275665F7265616C6C6F63FE
:1024A0003A207020213D204E554C4C0070627566DC
:1024B0005F7265616C6C6F633A2073616E6520704A
:1024C0002D3E74797065000067726F77203C206D37
:1024D00061785F7531365F74000000007062756668
:1024E0005F7265616C6C6F633A207120213D204EF4
:1024F000554C4C006D656D5F7472696D207265742A
:1025000075726E65642071203D3D204E554C4C0027
:102510007020213D204E554C4C000000696E6372C6
:10252000656D656E745F6D61676E69747564652055
:102530003C3D20702D3E6C656E00000062616420A1
:10254000706275662074797065000000706275664F
:102550005F667265653A2073616E65207479706597
:1025600000000000706275665F667265653A2070F3
:102570002D3E726566203E203000000070632D3EC7
:10258000637573746F6D5F667265655F66756E63A4
:1025900074696F6E20213D204E554C4C00000000A8
:1025A0007062756620726566206F766572666C6F04
:1025B00077000000286820213D204E554C4C2920F2
:1025C000262620287420213D204E554C4C292028B9
:1025D00070726F6772616D6D65722076696F6C6184
:1025E000746573204150492900000000702D3E742D
:1025F0006F745F6C656E203D3D20702D3E6C656E86
:1026000020286F66206C6173742070627566206983
:102610006E20636861696E2900000000702D3E6EB7
:10262000657874203D3D204E554C4C0070627566B7
:102630005F636F70793A20746172676574206E6FA2
:10264000742062696720656E6F75676820746F20FB
:10265000686F6C6420736F75726365006F66667374
:1026600065745F746F203C3D20705F746F2D3E6C0D
:10267000656E00006F66667365745F66726F6D20CD
:102680003C3D20705F66726F6D2D3E6C656E000084
:10269000705F746F20213D204E554C4C00000000AF
:1026A000706275665F636F7079282920646F657347
:1026B000206E6F7420616C6C6F77207061636B6546
:1026C0007420717565756573210000007062756610
:1026D0005F636F70795F7061727469616C3A2069D1
:1026E0006E76616C69642062756600007062756662
:1026F0005F636F70795F7061727469616C3A2069B1
:102700006E76616C6964206461746170747200003B
:102710000EB4C0B5024603A800210190009101ABA0
:102720000121044878440C3003F044FA06BC5DF8FB
:1027300010FB00BF93A80000704700B581B000F007
:10274000C9FDDFF878070178491C0170C80704D576
:1027500001B05DF804EB00F0BDBB01B000BD0000AE
:1027600070B5044682B0227D002952D0042A18BFD9
:10277000072A4ED1606F002804BF208DB0F5066F88
:1027800047D0A07EC10608D4DFF8343763A1DFF854
:10279000340740F20F12FFF7BBFF208BDFF82857FA
:1027A0000190231DE18A00912246616AE06C02F0EB
:1027B0001BF9204600F043FF2869A04202D1C068FF
:1027C00028618EE0002800F08C80C168A14200F0F2
:1027D0008680080000F08580C168A14200F07F80FB
:1027E000080000F07E80C168A14278D0080078D04F
:1027F000C168A14218BF0846E4D170E0DFF8CC06FA
:102800000168A14240F08280FEF7D3FF002002B0B1
:1028100070BD1AB1022A52D022D35BE0E08A0028B0
:1028200074D0DFF8A4168868A04202D1C06888601E
:102830006AE0002868D0C168A14263D0080063D074
:10284000C168A1425ED008005ED0C168A14259D0E3
:10285000080059D0C168A14218BF0846E9D151E02B
:10286000A4B9DFF86056DFF8586600BF57A13346B9
:10287000C0222846FFF74CFF0020017D012905D02A
:102880003346C1222CA12846FFF742FF0FF22062F7
:1028900003211068006838B1836FA34204BF00258C
:1028A0008567C0680028F7D1121D491EF1D1214665
:1028B000DFF81C0600F004FF2146022028E0DFF8C4
:1028C0000856214605F1100000F0FAFE012028709C
:1028D00021461DE0204602B0BDE8704038E0E168C6
:1028E000C1600020E06001212970207D042885D18D
:1028F0000A2121756869E0606C6102F08FFC00209C
:1029000002B070BDE168C1600020E0602146012096
:1029100002F0B8FB002002B070BD00007063622DB1
:102920003E666C61677320262054465F5258434CC4
:102930004F534544000000007063622D3E73746184
:102940007465203D3D204C495354454E0000000025
:1029500030B5050081B008D1DFF864351BA1DFF880
:10296000640540F24D12FFF7D3FE287D032806D000
:1029700004280CD0072816D0002001B030BD28460E
:1029800001F0AAF8040007D10520287505E02846C3
:1029900001F0A2F80400F7D06CB9284601F0A0FEBF
:1029A000204601B030BD284601F096F80400F3D16E
:1029B00009202875F1E714F1010FF1D1A87E40F04C
:1029C0000800A87601B0002030BD000070636220CE
:1029D000213D204E554C4C00017D012903D0817EC4
:1029E00041F0100181760121BAE600002DE9F04F97
:1029F000074683B0387D01280C4608D1DFF8C03483
:102A000048A1DFF8C0044FF4F072FFF781FE397D72
:102A10000A290BD13946DFF8200900F051FE39466A
:102A200003B0BDE8F04F012002F02CBBF86C02901F
:102A30000026D7F824A0D7F88C80D7F81090F88A11
:102A4000B34601BB50B3DFF880148868B84203D1A5
:102A5000C0688860FE6021E0002861D0C168B9428A
:102A60005CD008005CD0C168B94257D0080057D08C
:102A7000C168B94252D0080052D0C168B94218BFEB
:102A80000846E9D14AE026468346DFF83C44394609
:102A900004F1100000F014FE01202070FD6E55B10D
:102AA0002C68686808B1FFF7BFFA2946032002F0D6
:102AB000E9FA2500F4D1BD6E55B12C68686808B1FB
:102AC000FFF7B2FA2946032002F0DCFA2500F4D120
:102AD0003D6F55B12C68686808B1FFF7A5FA294623
:102AE000032002F0CFFA2500F4D14EB1388B0190CB
:102AF000CDF800B03B1D02983A46514601F074FFF4
:102B00003946012002F0BEFAB8F1000F03D06FF091
:102B10000C014846C04703B0BDE8F08FF968C160BA
:102B2000FE60BBE7646F6E27742063616C6C207479
:102B300063705F61626F72742F7463705F61626152
:102B40006E646F6E20666F72206C697374656E2D93
:102B50007063627300000000012147E7F0B50C00CC
:102B6000064608BFDFF85C49002E18BF002C81B074
:102B700015460AD0307D60B1DFF844331DA1DFF87F
:102B800044034FF41172FFF7C3FD6FF0050001B06D
:102B9000F0BD280007D100F04DF9050018D16FF005
:102BA000010001B0F0BD0FF2043704233868026859
:102BB0005AB1D08AA84206D1C2B11168B1B1206819
:102BC000A0B1814212D0D268F2E73F1D5B1EEDD169
:102BD000206800B13060DFF8F009F5828168F160AB
:102BE000866002F01BFB002001B0F0BD6FF0070013
:102BF00001B0F0BD7463705F62696E643A20636116
:102C00006E206F6E6C792062696E6420696E20732D
:102C10007461746520434C4F5345440000B5084629
:102C200081B00121FFF7E2FE6FF00C0001B000BDA2
:102C300070B50546002495F8140050B1DFF88032D5
:102C400027A1DFF880024FF42D72FFF761FD2046C7
:102C500070BD022002F0E6F904003ED02869DFF8DA
:102C6000686220610120E98AE1822075697D6175D1
:102C7000287A2072A97AA172687A60722968216024
:102C8000E88AF0B1B068A84202D1C068B06016E02E
:102C9000A8B1C168A94210D0080010D0C168A942EB
:102CA0000BD008000BD0C168A94206D0080006D09E
:102CB000C168A94218BF0846EAD1E968C16000208E
:102CC000E8602946012002F0DDF9DFF80009A06183
:102CD000F168E160F46002F0A1FA204670BD0000E6
:102CE0007463705F6C697374656E3A207063622000
:102CF000616C726561647920636F6E6E6563746583
:102D00006400000070B50446218D656A628E681803
:102D100040F23146B242E36AA8BF4FF48662C01A5D
:102D2000821A01D4618570BDE81A0028C8BF002549
:102D30000BDC5D1BB5F5803F07D3614B04A1DFF8C9
:102D4000FC054FF44272FFF7E3FC6585002070BD7F
:102D50006E65775F7263765F616E6E5F776E64201B
:102D60003C3D2030786666666600000030B504465B
:102D700081B0207D01280D4607D1514B1AA1DFF803
:102D8000BC054FF44872FFF7C3FC208D40F661028A
:102D90002D18A9B29142258506DAADB28DB9207DF4
:102DA000072818BF092803D14FF40660208508E0E2
:102DB000DFF80C3116A1DFF8840540F22D32FFF761
:102DC000A7FC2046FFF79EFFB0F5067F09DBA07E3B
:102DD00040F00200A07601B02046BDE8304001F08E
:102DE0007FBC01B030BD0000646F6E27742063614A
:102DF0006C6C207463705F72656376656420666FC7
:102E000072206C697374656E2D70636273000000CC
:102E10007463705F7265637665643A206C656E20DA
:102E200077726170706564207263765F776E640A92
:102E300000000000F0B500251CA2DFF8D4694FF4B3
:102E400040434FF6FF743188481CA14208BF184622
:102E50003080944637880421DCF800000068F0B127
:102E6000B0F816E0BE4513D0C068C0B1B0F816E0A7
:102E7000BE450DD0C06890B1B0F816E0BE4507D091
:102E8000C06860B1B0F816E0BE4518BFC068E6D1B2
:102E90006D1CA8B2B0F5804FD5DB0020F0BD491EF7
:102EA0000CF1040CD8D13846F0BD00001C01002004
:102EB000180100202001002024010020C06E002005
:102EC000543800082C38000810010020306E002013
:102ED0001C0100202DE9F04FDFF8EC660FF6EC1135
:102EE0000FF6701983B07068401C70607078401CD9
:102EF0007070029137694FF0000800E0FF68002F02
:102F000000F0CC81387D38B902990FF620104B467D
:102F10004FF47C72FFF7FCFB387D012808D14B464B
:102F200040F2F1320FF6D0110FF60010FFF7F0FB70
:102F3000387D0A2808D14B4640F2F2320FF6E411F0
:102F40000FF6E800FFF7E4FB7078797F8142D5D077
:102F5000397D787700240229A24605D197F84200EE
:102F60000628A8BF012469DA97F842200C2AA8BFD6
:102F7000012457DA97F89500F0B10FF24031084478
:102F800097F8941010F8010C8142BCBF491C87F8D7
:102F9000941097F89410814244DB384601F042FEC9
:102FA00000283FD187F8940097F89500062839D873
:102FB000401C87F8950035E0B7F9300003005CBF8E
:102FC000401C3886F86E68B3B7F93000B7F9403066
:102FD000984227DB02290ED0B7F93C00B7F93E1022
:102FE0000C2A01EBE00128BF0C220FF2D8208256F8
:102FF0009140A7F84010B7F84800B7F85C103C863D
:10300000884288BF0846798E490040088BB29842B2
:1030100038BF0846A7F84A00788EA7F84800384617
:1030200001F032FD387D062808D1B87EC10605D5ED
:103030007068396A401A292828BF641C387A010749
:103040002DD5387D042818BF072828D17168386A23
:10305000DFF8C027DFF8C057081AD7F890105218C9
:10306000A2FB05531B0A834203D2641C4FF0010AE2
:1030700015E097F89620DFF8A43703FB0211DFF87C
:103080009827A1FB02C5290A814208D2384601F0DF
:1030900073FD20B997F89600401C87F89600386FAA
:1030A00080B171683A6AB7F94030891A03EB430579
:1030B000B1EB450F06D3056800F09DF92800FAD161
:1030C00000203867387D032804D171683A6A891A6C
:1030D000292905E0092805D171683A6A891AF12978
:1030E00028BF641CE4B2002C00F080800028D7F8D0
:1030F0008CB01CBF0A28012836D0786F18B1FEF7B3
:1031000093FF002078673D6F55B12C68686808B15F
:10311000FEF78AFF2946032001F0B4FF2500F4D111
:1031200000204FF0FF31BD6E3867398655B12C68ED
:10313000686808B1FEF778FF2946032001F0A2FF76
:103140002500F4D1FC6E54B12568606808B1FEF723
:103150006BFF2146032001F095FF2C00F4D10020E5
:10316000B866F866A7F86400B8F1000F30690ED0B1
:10317000874208D14B4640F289420FF2D8710FF2D4
:10318000AC60FFF7C5FAF868C8F80C000CE0B8426C
:1031900008D04B4640F28D420FF2E4710FF28C6082
:1031A000FFF7B6FAF8683061BAF1000F09D0388B32
:1031B00001903B1DF98A00913A46796AF86C01F05A
:1031C00013FC3C693946FF68012001F05BFF0020D9
:1031D000BBF1000F30703FF492AE6FF00C0120464F
:1031E000D847307800287FF485AE88E6B84698F84E
:1031F0001B0098F81C10FF68401C88F81B00C0B228
:103200008842FFF47CAE002088F81B003070D8F8AC
:10321000882052B1D8F810004146904731780029F3
:103220007FF468AE00287FF46AAE404601F058FA99
:1032300065E6A84207D05B4640F2CF420FF2C47168
:103240005046FFF765FAE86870612946ED6801208D
:1032500001F018FF7DB3287D0A2805D05B464A4659
:1032600039465046FFF754FA7068296A401AF12827
:1032700011D3284600F0E3F97069002CD9D08542BB
:1032800006D15B4642460FF254715046FFF740FAB2
:10329000E868E060D9E72C46ED68DBE70024756953
:1032A0000FF208770FF2845A0FF2A85B40F2CB4876
:1032B00040F2BD49CEE703B0BDE8F08F03060C181D
:1032C00030607800010203040506070707070707B7
:1032D0000700000070B5BC4D6878401C68702C6910
:1032E00022E06077A07EC10709D540F00200A076F9
:1032F000204601F0F5F9A07E00F0FC00A076A07E4B
:10330000010705D500F0F700A0762046FFF720FB67
:10331000E668606F38B100212970204600F010F88F
:1033200028780028DBD134462CB16878617F81424F
:10333000D7D1E468F8E770BD240100202C380008DC
:10334000F0B5064681B0746FD6F88050677B0020D8
:1033500070672DB13069002322463146A84713E03B
:103360003CB121893046FFF701FD2046FEF75CFEA7
:103370000CE0307D012803D0B07E40F01000B07624
:1033800001213046FFF7ECF9010016D1B8061ED531
:10339000308DB0F5066F1CBF401C3085D6F88040DC
:1033A000ACB13069002300223146A0476FF00C0514
:1033B000A8420CD1284601B0F0BD6FF00C01884244
:1033C0001ABF74676FF00400084601B0F0BD00201A
:1033D00001B0F0BD30B5040081B00AD02568606846
:1033E00008B1FEF721FE2146032001F04BFE2C0020
:1033F000F4D101B030BD10B5040009D0606808B147
:10340000FEF712FE2146BDE81040032001F03ABE4F
:1034100010BD30B5054681B0032001F003FE040065
:1034200008BF002007D01022294602F061FB606827
:10343000FEF776FE204601B030BD10B514000846F8
:1034400007D02189FFF792FC2046FEF7EDFD002012
:1034500010BD002BFBD1017D012903D0817E41F0FD
:10346000100181760121BDE81040FFF779B9B0B5B0
:10347000082818BF0928044609D00FF2D8330FF2E4
:10348000AC510FF2A83040F2DC52FFF741F94E4B3D
:1034900018690021002200285F6812D0057DA5422E
:1034A00005D1056A7D1B8D4224BF29460246C068AE
:1034B0000028F3D12AB1BDE8B04000211046FFF743
:1034C00095BAB0BD1CD00008F0B5054681B001200A
:1034D00001F0A8FD04004AD13B4E70690021002292
:1034E000002874680DD0036AE31A8B4224BF194682
:1034F0000246C0680028F6D11AB101211046FFF734
:1035000075FA012001F08EFD040030D10920FFF78B
:10351000AEFF012001F086FD040028D10820FFF74E
:10352000A6FF012001F07EFD040020D1802DACBF5C
:103530007F212946306900230022A0B1447DA142A9
:1035400021BFD6F804E0076AAEEB07079F4202D31B
:103550003B4602462146C0680028EFD11AB101213E
:103560001046FFF743FA012001F05CFD044644B326
:103570009821204603F0E8FA4FF406606085208524
:103580004FF40672FF20A07262860620A4F8400065
:10359000E08701224FF0FF3020864FF48661A4F8C7
:1035A00048206575A4F86010074842682262407898
:1035B0006077A4F84A109A489A49C4F88010C4F871
:1035C0009000204601B0F0BD100100201D2C000825
:1035D000402079E700B10161704730B5040081B047
:1035E0000D460ED0207D012809D10FF268230FF27D
:1035F0004C410FF2382040F2BB62FFF789F8C4F863
:10360000805001B030BD30B5040081B00D460ED001
:10361000207D012809D10FF23C230FF248410FF21F
:103620000C204FF4DC62FFF773F8C4F88C5001B043
:1036300030BD18B1027D012A08BF8161704770B5A5
:103640000546287D00281CBF0A28012836D0686F4F
:1036500018B1FEF7E9FC002068672C6F54B12668AA
:10366000606808B1FEF7E0FC2146032001F00AFD86
:103670003400F4D100204FF0FF31AC6E286729866A
:1036800054B12668606808B1FEF7CEFC21460320DD
:1036900001F0F8FC3400F4D1EC6E54B12668606897
:1036A00008B1FEF7C1FC2146032001F0EBFC340019
:1036B000F4D10020A866E866A5F8640070BD00009B
:1036C00010B502460C461068A04202D1C0681060D6
:1036D00016E0A8B1C168A14210D0080010D0C1689E
:1036E000A1420BD008000BD0C168A14206D008004F
:1036F00006D0C168A14218BF0846EAD1E168C1609E
:103700000022E2602046FFF79AFF207D0A280DD0B4
:1037100001282ED0A07EC10708D540F00200A07677
:10372000204600F0DDFF207D012822D0A06E40B1B0
:103730000FF220130FF254313CA040F25372FEF707
:10374000E7FFE06E48B100BF0FF208130FF25431EB
:1037500036A040F25472FEF7DBFF206F48B100BF85
:103760000FF2F0030FF2583130A040F25672FEF71C
:10377000CFFF00202075E08210BD2B4A9069516870
:1037800008189061704710B50446084603F0E0F948
:1037900000281EBF408C01B2002904D0283880B216
:1037A000844288BF0446204610BD30B581B004462F
:1037B00051B1084602682368C5689A4204BF0121D6
:1037C000FFF714F92800F5D101B030BD70B5040041
:1037D0001CBF206800280D4618D0134E31692046C2
:1037E000FFF7E3FFB1682046FFF7DFFF002D1CBFA6
:1037F000286800280AD0F06840B102682368C168D0
:103800009A4204BF2E6806600800F6D170BD000021
:10381000FC010020B84C0A00986E1283F8240100C5
:1038200000DD6D003B34000810010020417373651A
:103830007274696F6E2022257322206661696C653F
:1038400064206174206C696E6520256420696E2097
:1038500025730A00433A5C55736572735CD098D047
:10386000B2D0B0D0BD5C4465736B746F705CD09F98
:10387000D180D0BED0B5D0BAD18220D09CD09F2DDF
:10388000D098D0985C4D502D49495F766572322EA4
:10389000305C4D502D49495F766572322E305C4D5B
:1038A0006964646C6577617265735C54686972649D
:1038B0005F50617274795C4C7749505C7372635CE1
:1038C000636F72655C7463702E6300007463705F75
:1038D000736C6F77746D723A2061637469766520DA
:1038E0007063622D3E737461746520213D20434CEA
:1038F0004F5345440A0000007463705F736C6F7728
:10390000746D723A20616374697665207063622D0C
:103910003E737461746520213D204C495354454EDB
:103920000A0000007463705F736C6F77746D723A95
:1039300020616374697665207063622D3E737461E3
:10394000746520213D2054494D452D574149540A65
:10395000000000007463705F736C6F77746D723A6F
:10396000206D6964646C652074637020213D20744F
:1039700063705F6163746976655F70636273000092
:103980007463705F736C6F77746D723A20666972DE
:10399000737420706362203D3D207463705F6163C7
:1039A000746976655F706362730000007463705FB2
:1039B000736C6F77746D723A2054494D452D5741A1
:1039C0004954207063622D3E7374617465203D3DDF
:1039D0002054494D452D5741495400007463705F90
:1039E000736C6F77746D723A206D6964646C6520D6
:1039F00074637020213D207463705F74775F70631F
:103A0000627300007463705F736C6F77746D723AE9
:103A100020666972737420706362203D3D20746378
:103A2000705F74775F70636273000000696E766127
:103A30006C6964207374617465000000696E76615E
:103A40006C696420736F636B657420737461746553
:103A500020666F7220726563762063616C6C6261B0
:103A6000636B0000696E76616C696420736F636BD1
:103A7000657420737461746520666F72206572725C
:103A80002063616C6C6261636B000000756E73652E
:103A90006E74207365676D656E7473206C65616B01
:103AA000696E6700756E61636B6564207365676D31
:103AB000656E7473206C65616B696E670000000051
:103AC0006F6F736571207365676D656E7473206CBD
:103AD00065616B696E67000030B5054681B0AC6EFC
:103AE00024B3206868B12468206850B10446206877
:103AF00038B104462068002803D004462068002816
:103B0000F1D1E1688889FDF7B9FF10F0070F0DD1F9
:103B10000120FDF7B3FFE1688A8910438881A87E00
:103B200040F02000A87601B0002030BD284601B04A
:103B3000BDE83040012100F0CBBC00002DE9F0478A
:103B4000089D8146E8074CBF042600260F46924692
:103B50009846032001F066FA040005D13846FEF7C6
:103B600063FA0020BDE8F087A5720020206067603E
:103B70003989B14280F20880DFF838371CA1DFF8BC
:103B80003807BA22FEF7C4FD3889801B2081142132
:103B90003846FEF745FA28B12046FFF72CFC0020F6
:103BA000BDE8F08760684168E160B9F81600FDF78C
:103BB00065FFE1680880B9F81800FDF75FFFE1686C
:103BC00048804046FDF760FFE1684860701006EBF2
:103BD0009076B610761D4AEA063188B2FDF74EFFA0
:103BE000E16888810020E16848822046BDE8F087CE
:103BF000702D3E746F745F6C656E203E3D206F705B
:103C0000746C656E00000000F0B50D461E469142D2
:103C100081B02B461AD2079989070BD4069CA17E46
:103C20004F0613D4089929B1A16E002904BFE16E93
:103C300000290BD003F21B239B08B2EB830F31BF8B
:103C4000134605F21B234FF6FC742340002219464D
:103C5000FDF762FF040008BF002010D0206840B1CB
:103C6000DFF8503607A1DFF850064FF48872FEF7F0
:103C70004FFD6089401B308025816581204601B061
:103C8000F0BD00006E65656420756E636861696EE5
:103C900065642070627566002DE9F04F8BB01F4699
:103CA0000646002398460693CDF810800A93ADF897
:103CB0000C30089309930025B6F85E00738E00243B
:103CC0004008834234BFADF81430ADF81400BDF89D
:103CD000140008B9ADF81430079171B9DFF8D43584
:103CE0000FF2D851DFF8D0054FF4C972FEF710FD7E
:103CF0006FF00F000BB0BDE8F08F307D042818BFC7
:103D0000072806D002281CBF03286FF00A0040F0E5
:103D1000DE815FEA02091DD0B6F86000484549D34C
:103D2000B6F86200082845DC4FF6FD73984241D290
:103D30000028F06E32D0002804BFB06E002809D1F0
:103D4000DFF870350FF2A8514FF4AB72DFF8680559
:103D5000FEF7DEFCB6F862A0B06E8DF80E7000289B
:103D600000F0F58004900246106878B111460968A9
:103D7000086850B10146086838B101460868002853
:103D80001EBF014608680028F1D104910498817A89
:103D9000C8074CBF4FF0040BC34610E0002804BF17
:103DA000B06E0028D6D0DFF80C350FF2805140F20B
:103DB0005912CBE7B07E40F08000B07685E10499DF
:103DC0000A89BDF814005A44904209DADFF8E43455
:103DD0000FF28C51DFF8E00440F2C712FEF798FCB6
:103DE000049ABDF814101089091AA1EB0B0BB6F850
:103DF0006410ADF80C1000293AD01FFA8BF08842FD
:103E000009D2DFF8B0340FF27051DFF8AC0440F2A1
:103E1000D912FEF77DFCBDF80C00049D484528BF73
:103E200048461FFA8BF18142B8BF584604DBBDF803
:103E30000C00484588BF484680B2089008A8BDF8E5
:103E40000C100488091BADF80C10BDF80C00089983
:103E5000002818BF4C45ABEB010B09D0DFF85434F8
:103E60000FF23451DFF8500440F2E112FEF750FC3B
:103E70004C4569DA1FFA8BF000281EBF049A10899E
:103E8000002861D01FFA8BF0A9EB040188429DF84D
:103E90000E00B4BF5F46A9EB0407C107154618D54D
:103EA0009DF80E10019101200290009603AB1FFABD
:103EB0008BF2B9B20420FFF7A7FE0028069000F0AD
:103EC000E4800798069B01195868BAB201F010FE09
:103ED00034E05168086868B10968086850B1014663
:103EE000086838B10146086800281EBF0146086806
:103EF0000028F1D1087B012813D148684989014481
:103F0000079881420DD14CB1DFF8A8330FF2A841D8
:103F1000DFF8A4034FF40372FEF7FAFBB8B209907E
:103F200010E00122B9B20420FDF7F6FD002806904A
:103F300000F0AB8007980699001948600698FEF7D4
:103F4000DCF882443C19A4B2ADF8169045E0B6F80E
:103F500064000028F8D0DFF85C330FF28841DFF806
:103F6000580340F22522FEF7D3FBADF8169034E05B
:103F70000A9838B9CF4B0FF29C41CF4840F28522C6
:103F8000FEF7C6FB0A98056024E02946FEF7D9F83B
:103F90003846FEF7B2F850441FFA80FABAF10A0F19
:103FA00080F285814FF6FD70824580F0808103208C
:103FB000D6F858B001F036F80500A34440F08A80E6
:103FC0003846FEF731F80025002D5ED0B8F1000F1D
:103FD000CED1A8464C440A95A4B2BDF8160084423E
:103FE00080F21E81021BBDF8140091B2814234BFE1
:103FF0001FFA82F981469DF80E00C10724D5B8F159
:10400000000F0CBF012000200290009603AB9DF82A
:104010000E00BDF81420019049460020FFF7F4FD82
:10402000074690B37889484507DAA24B0FF2F8317A
:10403000A14840F24122FEF76BFB0798011978680E
:104040004A4601F055FDA3E7BDF80C0038B1994B85
:104050000FF21441984840F24B22FEF759FB01221F
:1040600049460020FDF758FD05000ED007980019BD
:104070006860002200210020FDF74EFD0028074661
:104080007FF483AF2846FDF7CFFFB07E40F080007D
:10409000B076069808B1FDF7C7FFB8F1000F1CBF56
:1040A0004046FFF797F9B6F8620070B1F06E00284D
:1040B00004BFB06E002808D17E4B0FF2F4310FF62A
:1040C000884040F20232FEF723FB4FF0FF300BB086
:1040D000BDE8F08F0020A87228606F601421388935
:1040E00028813846FDF79CFF18B12846FFF783F971
:1040F00069E768684168E960F08AFDF7BFFCE96834
:104100000880308BFDF7BAFCE96848805846FDF717
:10411000BBFCE96848604FF4A040FDF7AFFCE968DC
:1041200088810020E96848824EE7099880B200281B
:104130003BD0049800281CBF4068002809D10FF626
:1041400060430FF234310FF6004040F2C122FEF717
:10415000DFFA04994A681068D0B1099910890818E3
:1041600010811268106890B11389CB181381024630
:10417000106860B11389CB1813810246106830B102
:104180001389CB181381024610680028E6D10991E3
:104190001189099841181181099851894118518153
:1041A000049909980A8982180A81049800280CBF8A
:1041B000C4F868B0C0F800B0A16DBDF816000818CA
:1041C000A065B4F86010BDF81600A4F862A0091A42
:1041D000B4F86200A4F8601078B1E06E002804BF63
:1041E000A06E002840F009800FF6B433B0A10FF69E
:1041F000583040F2ED22FEF78BFA002F1CBFF86812
:10420000002809D05FEA897006D40820FDF736FC43
:10421000F9688A891043888100200BB0BDE8F08FCF
:1042200007989DF80E90089934462F46C346E9B189
:1042300004994E68A6B1089D80463189691831817C
:10424000306848B9706873892A464146184401F0BD
:104250004FFC7089281870813668002EEDD10895C2
:10426000049801890898049A41181181BDF80C102E
:10427000A4F86410069800283FF457AF049848B992
:104280000FF61C330FF694310FF6BC2040F2BB2220
:10429000FEF73EFA049806994068FDF752FF04982D
:1042A000069A01891089049A411811817DE73846E0
:1042B000E9E60000A04D0008484D00087463705FF7
:1042C00077726974653A20617267203D3D204E55D2
:1042D0004C4C202870726F6772616D6D657220762C
:1042E000696F6C61746573204150492900000000BA
:1042F0007463705F77726974653A20706275667373
:10430000206F6E207175657565203D3E20617420BB
:104310006C65617374206F6E6520717565756520BD
:104320006E6F6E2D656D7074790000007463705F40
:1043300077726974653A206E6F20706275667320BB
:104340006F6E207175657565203D3E20626F7468E3
:104350002071756575657320656D70747900000056
:104360006D73735F6C6F63616C20697320746F6F22
:1043700020736D616C6C0000696E636F6E7369739E
:1043800074656E74206F76657273697A65207673D2
:104390002E20737061636500696E636F6E7369735D
:1043A00074656E74206F76657273697A65207673B2
:1043B0002E206C656E0000007463705F7772697404
:1043C000653A20524F4D2070627566732063616EAE
:1043D0006E6F74206265206F76657273697A6564AA
:1043E00000000000756E73656E745F6F76657273A2
:1043F000697A65206D69736D6174636820287063E4
:10440000622D3E756E73656E74206973204E554C37
:104410004C290000707265765F73656720213D202E
:104420004E554C4C000000007463705F77726974E5
:10443000653A20636865636B2074686174206669FF
:1044400072737420706275662063616E20686F6C91
:10445000642074686520636F6D706C65746520738B
:1044600065676C656E0000006F76657273697A65CA
:10447000203D3D20300000007463705F77726974E6
:10448000653A20657874656E73696F6E206F66207B
:104490007265666572656E636520726571756972B5
:1044A0006573207265666572656E63650000000065
:1044B0007463705F77726974653A2076616C6964C1
:1044C000207175657565206C656E67746800000005
:1044D0002DE9F0410D46002715F0030F82B0064686
:1044E00009D10FF6BC030FF66C110FF65C0040F219
:1044F0001B32FEF70DF9B6F86200082803DC4FF610
:10450000FD72904201D3E80722D5A90746BF0127D3
:104510004FF00408B846002241460020FDF7FCFA9F
:10452000040015D06089404509DA0FF674030FF6D0
:104530007C110FF6140040F24132FEF7E9F80097C3
:104540002A46B36D21463046FFF7F8FA040008D139
:10455000B07E40F08000B07602B04FF0FF30BDE892
:10456000F081207B10F0030F09D00FF634030FF613
:1045700078110FF2D47040F24932FEF7C9F8208961
:1045800048B10FF61C030FF678110FF2BC7040F221
:104590004A32FEF7BDF8B16E09B9B46610E008689A
:1045A00068B10968086850B10146086838B1014629
:1045B000086800281EBF014608680028F1D10C6079
:1045C000002115F0030FA6F8641002D0B06D401C56
:1045D000B065E80703D5B17E41F02001B17660688F
:1045E000FDF78BFDB6F862104018A6F8620080B2A5
:1045F00078B1F06E002804BFB06E002809D10FF228
:10460000A0730FF628110FF2407040F26D32FEF7E2
:104610007FF8002002B0BDE8F081F0B5064683B017
:10462000F06CFDF731FA0546002214210120FDF758
:1046300073FA040031D06089142808DA0FF260732D
:104640000FF22C710FF200707322FEF761F86768A9
:10465000F08AFDF713FA3880308BFDF70FFA788077
:104660007D60706AFDF710FAB86045F21000FDF742
:1046700005FAB881708DFDF701FAF88100203882C3
:104680007882718D706A4118F162301D02F060FA13
:1046900058B96FF003073D4614E0B07E40F00300C8
:1046A000B07603B06FF00100F0BD0290321D06201D
:1046B00001902046717A00913146B37A02F038FBBE
:1046C00007463D462046FDF7AFFCB07E002D14BFE7
:1046D00040F0030000F0FC00B07603B03846F0BDB7
:1046E0002DE9F0470546287D012809D10FF2B06376
:1046F0000FF660010FF2506040F2ED32FEF708F85D
:10470000B7490868A84268D0B5F84890B5F85C0089
:10471000AC6E484538BF8146A87E81070ED54CB1A6
:10472000E1684868FDF7B0F9696C2289401A801881
:10473000814503D22846BDE8F0476EE7EF6E002FB3
:104740001CBF386800280DD03F68386850B1074654
:10475000386838B10746386800281EBF07463868F1
:104760000028F1D1281D02F0F3F95FEA000807D014
:10477000002D1CBF2868002808D118F1040003D1BF
:104780006FF00300BDE8F08700682860E4B1E168DD
:104790004868FDF779F9696C2289401A80188145CB
:1047A00050D2B9F1000F4DD0B5F85C10894504BF67
:1047B000E86E002846D195F8950028B9002101201F
:1047C00085F8941085F89500A86E10B90021A5F819
:1047D0006410A87E00F07F00A8760020BDE8F08776
:1047E000A97E41F08001A976BDE8F087E1684868BC
:1047F000FDF74AF9F96806464868FDF745F9361AA3
:1048000017D505F16C063068002800F09380C16868
:104810004868FDF739F9E16882464868FDF734F9E0
:10482000BAEB000048BF3668EDD4306820603460D1
:1048300005E03C60274602E02046FEF7DCFDAC6E5A
:10484000002CC1D0E1684868FDF71EF9696C228927
:10485000401A80188145B7D3E1688889FDF70EF9C1
:10486000400709D50FF238530FF210710FF2D840FC
:1048700040F24642FDF74CFFE86EA8B1AA7E12F066
:10488000440F11D1A96E29B1086868B90889698EE9
:10489000884209D2B5F8600030B1B5F86200082846
:1048A00002DC12F0A00F8FD0287D022806D0102045
:1048B000FDF7E4F8E1688A89104388814246294679
:1048C000204600F03BF801008AD1297D2068A866C7
:1048D000022903D0A87E00F0FC00A876E1684868B1
:1048E000FDF7D2F80646E0688089FDF7C7F800F0CA
:1048F0000300411E20898941C943301800EBD17063
:10490000E96C091A48BFE864E0688089FDF7B6F8E9
:1049100000F00300401E80412189C04311EBD0709C
:104920008AD000222260E86E00287FF45FAFEC6638
:10493000274684E730682060346080E7F0B504469D
:1049400083B060680E46C1890129154618BF002052
:1049500044D1706AFDF798F8E1688860708DFDF7C2
:104960008DF8E168C881706A728D8218F26201F177
:104970001407A07AC10709D5311D4FF40670FEF760
:1049800002FF40F00170FDF77FF83860B6F93000A3
:10499000002844BF00213186706B38B9114908687E
:1049A0007063E1684868FDF76FF8B0636068E168BC
:1049B00042680489438941608A1A92B29B1AA21AFA
:1049C0000281438100220A8206210295019131462B
:1049D000727A0092321DB37A02F0AAF903B0F0BDE8
:1049E000306E0020140100202DE9F04781468846F2
:1049F000154684B09A46002214210120FDF78CF858
:104A000004003ED06089142809D20FF294330FF2CB
:104A100060310FF2343040F24D52FDF779FE0D9EB9
:104A20000C986768FDF72AF838803046FDF726F8BD
:104A300078804846FDF728F878604046FDF724F86E
:104A4000B86045F21400FDF719F8B881002146F26C
:104A50000800F88139827982504602F079F850B125
:104A6000029000220620019000922946FF23524620
:104A7000204602F05DF9204604B0BDE8F047FDF79E
:104A8000D3BA04B0BDE8F087C26EFAB1116869B15B
:104A90001268116851B10A46116839B10A461168A5
:104AA00000291EBF0A4611680029F1D1816E1160EC
:104AB0000021C26EC166826690F84210FF291CBFB9
:104AC000491C80F842100021416309E67047F0B5A7
:104AD000054681B0EC6E1CB32068E86605F16806F7
:104AE000306860B1C1684868FCF7CEFFE1680746EE
:104AF0004868FCF7C9FF3F1A48BF3668F0D43168F0
:104B000021603460206810B90021A5F8641095F880
:104B10004200FF281CBF401C85F84200002068634B
:104B200001B0F0BD10B50446E06E20B3A07E410791
:104B300021D42046FFF7CBFFB4F85C00B4F848104E
:104B4000814238BF084600EBD0704010618E82B2BF
:104B5000B2EB410F38BF4800A4F84A0001EB410115
:104B6000B4F84A000918A4F848100021A07E218654
:104B700040F00400A07610BDF0B5054683B0E86CA7
:104B8000401EFCF781FF0646002214210120FCF79D
:104B9000C3FF04002FD06089142807DA0FF2002326
:104BA0000FF2CC1168A07322FDF7B2FD6768E88AA6
:104BB000FCF764FF3880288BFCF760FF78807E600C
:104BC000686AFCF761FFB86045F21000FCF756FF19
:104BD000B881688DFCF752FFF88100203882788216
:104BE000698D686A4118E962281D01F0B1FF30B98A
:104BF0006FF003050FE04FF0FF3003B0F0BD0290FF
:104C000000210620019000912A1DAB7A29462046FA
:104C100002F08EF805462046FDF706FA284603B056
:104C2000F0BD00002DE9F043064683B0F46E2CB9C8
:104C3000B46E1CB9002003B0BDE8F083E068808941
:104C4000FCF71CFFC00704D521894D1EAD41ED0FB7
:104C500000E00025E068D0F8049085F001011431EF
:104C6000002289B20120FCF757FF5FEA000848D014
:104C7000B8F80A00142807DA0FF224130FF2F00133
:104C800031A07322FDF744FDD8F80470F08AFCF7D8
:104C9000F5FE3880308BFCF7F1FE7880C7F8049081
:104CA000706AFCF7F1FEB86045F21000FCF7E6FE12
:104CB000B881708DFCF7E2FEF8810020388278829E
:104CC000718D706A4118F162D8F80470F5B96068A6
:104CD000218903895B1A9BB2012207F11401FDF7B8
:104CE0000BFBE1684868FCF7CFFEF16C401C091A29
:104CF00048BFF064301D01F02BFF88B96FF003044A
:104D00001AE04FF0FF3003B0BDE8F0831120FCF74C
:104D1000B5FEBA894CF2FF010A401043B881E0E7C2
:104D200002900021062001900091321DB37A314695
:104D3000404601F0FDFF04464046FDF775F9204668
:104D400003B0BDE8F0830000417373657274696F4E
:104D50006E2022257322206661696C65642061746F
:104D6000206C696E6520256420696E2025730A0019
:104D7000636865636B20746861742066697273741C
:104D800020706275662063616E20686F6C642073AA
:104D90007472756374207463705F686472000000DD
:104DA000433A5C55736572735CD098D0B2D0B0D082
:104DB000BD5C4465736B746F705CD09FD180D0BE56
:104DC000D0B5D0BAD18220D09CD09F2DD098D09889
:104DD0005C4D502D49495F766572322E305C4D50E6
:104DE0002D49495F766572322E305C4D6964646C82
:104DF0006577617265735C54686972645F50617253
:104E000074795C4C7749505C7372635C636F726554
:104E10005C7463705F6F75742E6300007463705F01
:104E200077726974653A2063616E6E6F7420636F88
:104E30006E636174656E617465207768656E20705D
:104E400063622D3E756E73656E7420697320656DA7
:104E5000707479007463705F656E71756575655FF8
:104E6000666C6167733A206E656564206569746875
:104E70006572205443505F53594E206F7220544343
:104E8000505F46494E20696E20666C61677320282A
:104E900070726F6772616D6D65722076696F6C619B
:104EA0007465732041504929000000007463705FED
:104EB000656E71756575655F666C6167733A2063D1
:104EC0006865636B2074686174206669727374200E
:104ED000706275662063616E20686F6C64206F700D
:104EE000746C656E000000007365672D3E7463701E
:104EF000686472206E6F7420616C69676E6564000F
:104F00007463705F656E71756575655F666C61670A
:104F1000733A20696E76616C6964207365676D65AC
:104F20006E74206C656E6774680000007463705F57
:104F3000656E71756575655F666C6167733A20694A
:104F40006E76616C6964207175657565206C656E3F
:104F500067746800646F6E27742063616C6C2074E2
:104F600063705F6F757470757420666F72206C6902
:104F70007374656E2D706362730000005253542089
:104F80006E6F7420657870656374656420686572FF
:104F900065210000F0B400BF8BA509242B689A6836
:104FA000002010605E685888F61CB608B600D8B1BC
:104FB00010F0030106D0176837601660491E1F887D
:104FC0003E44F8D180080FD01168316016601F8808
:104FD000F1190E60CE19116031601660F1190E6082
:104FE000CE19401E1160EFD12D1D641ED6D1F0BC2C
:104FF0007047000010B58068046884B121680160C2
:1050000014F0030009D000BF0FF2E8030FF2C00153
:1050100025A040F24912FDF77BFB204610BD002081
:1050200010BD000000B5092881B00BDB0FF2C403EE
:105030000FF238111CA040F28712FDF769FB002027
:1050400001B000BD60A151F8200001B05DF804EB93
:10505000D0E7000030B504460D4615F0030081B0DE
:1050600009D000BF0FF28C030FF220110EA040F206
:105070009D12FDF74DFBA06801682960056001B035
:1050800030BD0000092808DB0FF268030FF21C1185
:1050900005A040F2DB12FDF73BBB19B14AA252F862
:1050A0002000D7E770470000417373657274696F21
:1050B0006E2022257322206661696C65642061740C
:1050C000206C696E6520256420696E2025730A00B6
:1050D0006D656D705F6D616C6C6F633A206D656DB1
:1050E000702070726F7065726C7920616C69676E88
:1050F00065640000433A5C55736572735CD098D068
:10510000B2D0B0D0BD5C4465736B746F705CD09FDF
:10511000D180D0BED0B5D0BAD18220D09CD09F2D26
:10512000D098D0985C4D502D49495F766572322EEB
:10513000305C4D502D49495F766572322E305C4DA2
:105140006964646C6577617265735C5468697264E4
:105150005F50617274795C4C7749505C7372635C28
:10516000636F72655C6D656D702E63006D656D704B
:105170005F6D616C6C6F633A2074797065203C20C0
:105180004D454D505F4D4158000000006D656D70FC
:105190005F667265653A206D656D2070726F70652F
:1051A000726C7920616C69676E6564006D656D7005
:1051B0005F667265653A2074797065203C204D45C4
:1051C0004D505F4D4158000080CD00088CCD000847
:1051D00098CD0008A4CD0008B0CD0008BCCD0008D3
:1051E000C8CD0008D4CD0008E0CD000800B581B0DE
:1051F000FDF7A3FA7E490868002802BF7D490868C8
:10520000002806D001B05DF804EB00227A49FA20AC
:105210007CE07A49886001B000BD000030B5774D70
:10522000A868002881B047D171490868002802BFEA
:105230007049086800283FD00121A9600620FFF7C7
:10524000F1FE04000AD101B0BDE830400FF2202386
:105250000FF2DC116CA0D422FDF75ABA02F030F83C
:10526000296811B9FA22686002E06A68FA30821A85
:1052700000202060E06062605F4BA36029B1486855
:10528000FA2805D9FA38486021602C6001B030BD99
:105290000A4660685368C31A6360106870B1456855
:1052A000AB4228BF0246F4D208E0FA2B02D9496883
:1052B000FA3161602060146001B030BD0028F4D084
:1052C0004568EB1A4360F5E710B50446606880470F
:1052D00020684B492246BDE8104017E030B5484CE5
:1052E00082A581B005F1080221464FF47A7000F0E2
:1052F0000DF805F1100221464FF47A7000F006F81F
:1053000001F0DEFF3D49486001B030BDF0B5054613
:1053100081B00E4617460620FFF784FE04000BD12D
:105320000DF1040DBDE8F0400FF244130FF200112F
:1053300035A0D422FDF7ECB901F0C2FF2F4B19685C
:1053400011B92A46586002E05A684019821A0020B2
:105350002060A660E760626029B14868854205D296
:10536000451B4D6021601C6001B0F0BD0A466068BD
:105370005368C31A6360106870B14668B34228BFAF
:105380000246F4D208E09D4202D249684D19656098
:105390002060146001B0F0BD0028F4D04668F31A14
:1053A0004360F5E72DE9F041144C2068F0B101F0BD
:1053B00087FF6668134D861B0FE062688218626083
:1053C000361A086820608F68D1F80C800620FFF735
:1053D00059FE38001CBF4046B847287808B1FCF792
:1053E0007DFB216811B148688642E6D2BDE8F081B4
:1053F0002001002024010020ED5100087C6E0020D7
:10540000C9520008C76A0020417373657274696FDE
:105410006E2022257322206661696C6564206174A8
:10542000206C696E6520256420696E2025730A0052
:105430007379735F74696D656F75743A2074696D03
:10544000656F757420213D204E554C4C2C20706F9B
:105450006F6C204D454D505F5359535F54494D4536
:105460004F555420697320656D70747900000000F9
:10547000433A5C55736572735CD098D0B2D0B0D0AB
:10548000BD5C4465736B746F705CD09FD180D0BE7F
:10549000D0B5D0BAD18220D09CD09F2DD098D098B2
:1054A0005C4D502D49495F766572322E305C4D500F
:1054B0002D49495F766572322E305C4D6964646CAB
:1054C0006577617265735C54686972645F5061727C
:1054D00074795C4C7749505C7372635C636F72657E
:1054E0005C74696D656F7574732E6300FA0000005B
:1054F0003B270008E8030000A97E0008E80300003D
:10550000E99D000830B5DFF8A053044628688442BE
:1055100081B009D20FF2D4330FF2B8310FF28C30D0
:1055200040F25D12FDF7F4F86868844209D30FF287
:10553000BC330FF230410FF274304FF4AF72FDF70D
:10554000E7F8207948B10FF2A4330FF234410FF29B
:105550005C3040F25F12FDF7DBF8208840F24161D9
:10556000884209D30FF284330FF230410FF23C30FE
:105570004FF4B172FDF7CCF8296822880A449442AE
:105580000ED0107960B96868824209D0AB68934246
:1055900008BFAC60108820808B1C1288601A98525B
:1055A0006388CA18A2420BD0107948B9A868A042F3
:1055B00008BFAA6020881080521A2388891CCA520A
:1055C00001B030BDB84800F10F01890800238900FF
:1055D00001604B800B714FF4C8620A8001F5C8630B
:1055E00043604FF0010C83F804C01A805A80816038
:1055F0007047000030B5040081B03BD014F00300C8
:1056000000F009800FF2E4230FF2BC31A7A04FF4A1
:10561000D672FDF77DF8A44D2868844202D36968EC
:105620008C4208D30FF2C4230FF2C0319FA040F286
:10563000AF12FDF76DF8286884421BD369688C426D
:1056400018D214F8040C40B90FF2A0230FF2B431B1
:1056500096A04FF4E072FDF75BF8002004F8040C0C
:10566000A4F10800A968884238BFA86001B0BDE86D
:10567000304047E701B030BD2DE9F041CD1C4FF679
:10568000FC710D400C2D32BF0C2540F24162954259
:105690002DD2854E80463068804502D3716888459A
:1056A00009D300BF0FF244230FF26C317FA04FF4F7
:1056B000FA72FDF72DF83768B84552D37068804507
:1056C0004FD2A8F1080138F8080CCF1BC01BA0F17D
:1056D0000804A4B2AC4208DA0FF210230FF25031E2
:1056E00072A040F20622FDF713F8AC4202DA002065
:1056F000BDE8F081A54234D0316838F8082C0A445E
:10570000107990B9ED190835ADB2B46810884B190D
:10571000944208BFB3600E1D002272551880881C89
:10572000475328F8085C188816E005F114008442F5
:1057300017D3ED190835A8B2B3680A189A4238BFD2
:10574000B2600E1D0023335438F8083C13808B1CC4
:105750001F5228F8085C1088B0F5C86F1CBF891C60
:105760000D524046BDE8F0812DE9F042010060D0C5
:10577000C11C4FF6FC7001400C2938BF0C2102D32C
:10578000B1F5C86F55D8484CA2682368D71A894626
:10579000BFB2C9F5C86C00E02F88674549D2DD1952
:1057A0002E4630790028F7D13088C01B083848458C
:1057B000F2D309F11405A84219D3C919083188B2E6
:1057C00003F1040C00250CF8005003EB000C3588A5
:1057D000ACF800509D1C2F52012030713180BCF874
:1057E0000000B0F5C86F04D09F1C395201E00120C1
:1057F000307196422FD161681079E8B18A421FBF9B
:1058000012889A181079002816D08A421FBF128871
:105810009A18107900280FD08A421FBF12889A1850
:105820001079002808D08A421CBF12889A18E3D148
:1058300002E00020BDE8F082A2608A421CBF10791D
:10584000002808D00FF2A4030FF2042117A040F2A1
:10585000CF22FCF75DFF6068B14409F1080188427E
:1058600009D200BF0FF284030FF200210FA04FF402
:105870003572FCF74DFF16F0030011D00FF22C0427
:105880000FF2680585A12B4640F2D6222046FCF790
:105890003FFF2B464FF436728CA12046FCF738FFB1
:1058A00006F10800BDE8F082EC58002041737365F2
:1058B0007274696F6E2022257322206661696C659F
:1058C00064206174206C696E6520256420696E20F7
:1058D00025730A00706C75675F686F6C65733A209A
:1058E0006D656D203E3D2072616D0000433A5C5550
:1058F000736572735CD098D0B2D0B0D0BD5C446593
:10590000736B746F705CD09FD180D0BED0B5D0BAAD
:10591000D18220D09CD09F2DD098D0985C4D502D16
:1059200049495F766572322E305C4D502D49495F92
:10593000766572322E305C4D6964646C6577617295
:1059400065735C54686972645F50617274795C4C11
:105950007749505C7372635C636F72655C6D656DF3
:105960002E630000706C75675F686F6C65733A201A
:105970006D656D203C2072616D5F656E6400000096
:10598000706C75675F686F6C65733A206D656D2D1F
:105990003E75736564203D3D20300000706C756776
:1059A0005F686F6C65733A206D656D2D3E6E65782E
:1059B00074203C3D204D454D5F53495A455F414C55
:1059C00049474E45440000006D656D5F6672656530
:1059D0003A2073616E69747920636865636B206136
:1059E0006C69676E6D656E74000000006D656D5FBB
:1059F000667265653A206C6567616C206D656D6FD8
:105A0000727900006D656D5F667265653A206D653F
:105A10006D2D3E75736564006D656D5F7472696DA3
:105A20003A206C6567616C206D656D6F727900005E
:105A30006D656D5F7472696D2063616E206F6E6C51
:105A40007920736872696E6B206D656D6F72790075
:105A50006D656D5F6D616C6C6F633A20216C667271
:105A600065652D3E75736564000000006D656D5FB2
:105A70006D616C6C6F633A20616C6C6F636174650F
:105A800064206D656D6F7279206E6F742061626F36
:105A900076652072616D5F656E642E006D656D5F69
:105AA0006D616C6C6F633A20616C6C6F63617465DF
:105AB00064206D656D6F72792070726F7065726CA5
:105AC0007920616C69676E65642E00006D656D5F9D
:105AD0006D616C6C6F633A2073616E6974792063D9
